{
  "contractName": "Case",
  "abi": [
    {
      "constant": false,
      "inputs": [],
      "name": "renounceOwnership",
      "outputs": [],
      "payable": false,
      "stateMutability": "nonpayable",
      "type": "function"
    },
    {
      "constant": true,
      "inputs": [],
      "name": "owner",
      "outputs": [
        {
          "name": "",
          "type": "address"
        }
      ],
      "payable": false,
      "stateMutability": "view",
      "type": "function"
    },
    {
      "constant": false,
      "inputs": [
        {
          "name": "_newOwner",
          "type": "address"
        }
      ],
      "name": "transferOwnership",
      "outputs": [],
      "payable": false,
      "stateMutability": "nonpayable",
      "type": "function"
    },
    {
      "inputs": [
        {
          "name": "_patient",
          "type": "address"
        },
        {
          "name": "_doctor",
          "type": "address"
        }
      ],
      "payable": false,
      "stateMutability": "nonpayable",
      "type": "constructor"
    },
    {
      "anonymous": false,
      "inputs": [
        {
          "indexed": true,
          "name": "previousOwner",
          "type": "address"
        }
      ],
      "name": "OwnershipRenounced",
      "type": "event"
    },
    {
      "anonymous": false,
      "inputs": [
        {
          "indexed": true,
          "name": "previousOwner",
          "type": "address"
        },
        {
          "indexed": true,
          "name": "newOwner",
          "type": "address"
        }
      ],
      "name": "OwnershipTransferred",
      "type": "event"
    },
    {
      "constant": false,
      "inputs": [
        {
          "name": "_strategy",
          "type": "address"
        }
      ],
      "name": "setupStrategy",
      "outputs": [],
      "payable": false,
      "stateMutability": "nonpayable",
      "type": "function"
    },
    {
      "constant": false,
      "inputs": [
        {
          "name": "actionHash",
          "type": "uint32"
        }
      ],
      "name": "submitAction",
      "outputs": [],
      "payable": false,
      "stateMutability": "nonpayable",
      "type": "function"
    }
  ],
  "bytecode": "0x608060405234801561001057600080fd5b50604051604080610a548339810180604052810190808051906020019092919080519060200190929190505050336000806101000a81548173ffffffffffffffffffffffffffffffffffffffff021916908373ffffffffffffffffffffffffffffffffffffffff16021790555033600360006101000a81548173ffffffffffffffffffffffffffffffffffffffff021916908373ffffffffffffffffffffffffffffffffffffffff16021790555081600160006101000a81548173ffffffffffffffffffffffffffffffffffffffff021916908373ffffffffffffffffffffffffffffffffffffffff16021790555080600260006101000a81548173ffffffffffffffffffffffffffffffffffffffff021916908373ffffffffffffffffffffffffffffffffffffffff1602179055505050610903806101516000396000f30060806040526004361061006d576000357c0100000000000000000000000000000000000000000000000000000000900463ffffffff16806324a58c4214610072578063715018a6146100b55780638da5cb5b146100cc578063f2fde38b14610123578063f4e093a414610166575b600080fd5b34801561007e57600080fd5b506100b3600480360381019080803573ffffffffffffffffffffffffffffffffffffffff169060200190929190505050610199565b005b3480156100c157600080fd5b506100ca610517565b005b3480156100d857600080fd5b506100e1610619565b604051808273ffffffffffffffffffffffffffffffffffffffff1673ffffffffffffffffffffffffffffffffffffffff16815260200191505060405180910390f35b34801561012f57600080fd5b50610164600480360381019080803573ffffffffffffffffffffffffffffffffffffffff16906020019092919050505061063e565b005b34801561017257600080fd5b50610197600480360381019080803563ffffffff1690602001909291905050506106a5565b005b6000600260009054906101000a900473ffffffffffffffffffffffffffffffffffffffff1673ffffffffffffffffffffffffffffffffffffffff163373ffffffffffffffffffffffffffffffffffffffff1614806102445750600160009054906101000a900473ffffffffffffffffffffffffffffffffffffffff1673ffffffffffffffffffffffffffffffffffffffff163373ffffffffffffffffffffffffffffffffffffffff16145b151561024f57600080fd5b6001600560003373ffffffffffffffffffffffffffffffffffffffff1673ffffffffffffffffffffffffffffffffffffffff16815260200190815260200160002060006101000a81548160ff02191690831515021790555060056000600160009054906101000a900473ffffffffffffffffffffffffffffffffffffffff1673ffffffffffffffffffffffffffffffffffffffff1673ffffffffffffffffffffffffffffffffffffffff16815260200190815260200160002060009054906101000a900460ff16801561038d575060056000600260009054906101000a900473ffffffffffffffffffffffffffffffffffffffff1673ffffffffffffffffffffffffffffffffffffffff1673ffffffffffffffffffffffffffffffffffffffff16815260200190815260200160002060009054906101000a900460ff165b151561039857600080fd5b600360009054906101000a900473ffffffffffffffffffffffffffffffffffffffff1690508073ffffffffffffffffffffffffffffffffffffffff166372cb5d9730846040518363ffffffff167c0100000000000000000000000000000000000000000000000000000000028152600401808373ffffffffffffffffffffffffffffffffffffffff1673ffffffffffffffffffffffffffffffffffffffff1681526020018273ffffffffffffffffffffffffffffffffffffffff1673ffffffffffffffffffffffffffffffffffffffff16815260200192505050602060405180830381600087803b15801561048c57600080fd5b505af11580156104a0573d6000803e3d6000fd5b505050506040513d60208110156104b657600080fd5b810190808051906020019092919050505015156104d257600080fd5b81600460006101000a81548173ffffffffffffffffffffffffffffffffffffffff021916908373ffffffffffffffffffffffffffffffffffffffff1602179055505050565b6000809054906101000a900473ffffffffffffffffffffffffffffffffffffffff1673ffffffffffffffffffffffffffffffffffffffff163373ffffffffffffffffffffffffffffffffffffffff1614151561057257600080fd5b6000809054906101000a900473ffffffffffffffffffffffffffffffffffffffff1673ffffffffffffffffffffffffffffffffffffffff167ff8df31144d9c2f0f6b59d69b8b98abd5459d07f2742c4df920b25aae33c6482060405160405180910390a260008060006101000a81548173ffffffffffffffffffffffffffffffffffffffff021916908373ffffffffffffffffffffffffffffffffffffffff160217905550565b6000809054906101000a900473ffffffffffffffffffffffffffffffffffffffff1681565b6000809054906101000a900473ffffffffffffffffffffffffffffffffffffffff1673ffffffffffffffffffffffffffffffffffffffff163373ffffffffffffffffffffffffffffffffffffffff1614151561069957600080fd5b6106a2816107dd565b50565b6000600160009054906101000a900473ffffffffffffffffffffffffffffffffffffffff1673ffffffffffffffffffffffffffffffffffffffff163373ffffffffffffffffffffffffffffffffffffffff1614151561070357600080fd5b600460009054906101000a900473ffffffffffffffffffffffffffffffffffffffff1690508073ffffffffffffffffffffffffffffffffffffffff1663583972be836040518263ffffffff167c0100000000000000000000000000000000000000000000000000000000028152600401808263ffffffff168152602001915050602060405180830381600087803b15801561079d57600080fd5b505af11580156107b1573d6000803e3d6000fd5b505050506040513d60208110156107c757600080fd5b8101908080519060200190929190505050505050565b600073ffffffffffffffffffffffffffffffffffffffff168173ffffffffffffffffffffffffffffffffffffffff161415151561081957600080fd5b8073ffffffffffffffffffffffffffffffffffffffff166000809054906101000a900473ffffffffffffffffffffffffffffffffffffffff1673ffffffffffffffffffffffffffffffffffffffff167f8be0079c531659141344cd1fd0a4f28419497f9722a3daafe3b4186f6b6457e060405160405180910390a3806000806101000a81548173ffffffffffffffffffffffffffffffffffffffff021916908373ffffffffffffffffffffffffffffffffffffffff160217905550505600a165627a7a72305820b7deab52c57be5944065f6788adce757b577d9e41fe353689faebf9ed12565b60029",
  "source": "pragma solidity ^0.4.24;\n\n\nimport \"./Government.sol\";\nimport \"./Strategy.sol\";\n\n/* @title OptionTokenStandard - Abstract contract to create Option Token Contracts\n * It containt whole logic except working with tokenContracts\n *\n *  Author: Mikhail Lazarev (mikael.lazarev@tokenstarter.io)\n */\n\ncontract Case is Ownable {\n\n\n    using SafeMath for uint256;\n\n    // Constants\n\n    // Variables\n    address patient;\n    address doctor;\n    address governmentAddress;\n    address strategyContractAddress;\n\n    // Strategy approval\n    mapping (address => bool) strategyApprovement;\n\n    constructor (\n        address  _patient,\n        address  _doctor\n    )\n        public\n    {\n        governmentAddress = msg.sender;\n        patient = _patient;\n        doctor = _doctor;\n\n    }\n\n    // Allow to execute function before expiration date\n    modifier onlyPatient {\n        require(msg.sender == patient);\n        _;\n    }\n\n    // Allow to execute function before burning date\n    modifier onlyDoctor {\n        require(msg.sender == doctor);\n        _;\n    }\n\n    modifier onlyPatientOrDoctor {\n        require((msg.sender == doctor) || (msg.sender == patient));\n        _;\n    }\n    // setup strategy could be done by Goverment contract\n    // Goverment contract as Case holder set it up for Case\n    // And connect Strategy contract also\n\n    function setupStrategy(address _strategy) public onlyPatientOrDoctor {\n        strategyApprovement[msg.sender] = true;\n        require(strategyApprovement[patient] && strategyApprovement[doctor]);\n        Government government = Government(governmentAddress);\n        require(government.setStrategy(address(this), _strategy));\n        strategyContractAddress = _strategy;\n\n    }\n\n    function submitAction(uint32 actionHash) public onlyPatient {\n        Strategy myStrategy = Strategy(strategyContractAddress);\n        myStrategy.submitAction(actionHash);\n    }\n\n}",
  "sourcePath": "/Users/mikhail/Coding/hederaHealth/contracts/contracts/Case.sol",
  "compiler": {
    "name": "solc",
    "version": "0.4.24+commit.e67f0147.Emscripten.clang"
  },
  "schemaVersion": "2.0.1",
  "updatedAt": "2018-10-15T15:59:09.246Z"
}