{
  "contractName": "DigitalCare",
  "abi": [
    {
      "constant": true,
      "inputs": [
        {
          "name": "",
          "type": "bytes32"
        }
      ],
      "name": "cases",
      "outputs": [
        {
          "name": "patient",
          "type": "address"
        },
        {
          "name": "doctor",
          "type": "address"
        },
        {
          "name": "strategyIPFSHash",
          "type": "bytes32"
        },
        {
          "name": "dateStrategyStarted",
          "type": "uint256"
        },
        {
          "name": "lastAction",
          "type": "uint256"
        }
      ],
      "payable": false,
      "stateMutability": "view",
      "type": "function"
    },
    {
      "constant": true,
      "inputs": [],
      "name": "doctorsQty",
      "outputs": [
        {
          "name": "",
          "type": "uint256"
        }
      ],
      "payable": false,
      "stateMutability": "view",
      "type": "function"
    },
    {
      "constant": true,
      "inputs": [
        {
          "name": "",
          "type": "uint256"
        }
      ],
      "name": "actions",
      "outputs": [
        {
          "name": "caseHash",
          "type": "bytes32"
        },
        {
          "name": "IPFSHash",
          "type": "bytes32"
        },
        {
          "name": "dateExecuted",
          "type": "uint256"
        }
      ],
      "payable": false,
      "stateMutability": "view",
      "type": "function"
    },
    {
      "inputs": [],
      "payable": false,
      "stateMutability": "nonpayable",
      "type": "constructor"
    },
    {
      "constant": false,
      "inputs": [
        {
          "name": "_strategyProvider",
          "type": "address"
        }
      ],
      "name": "addStrategyProvider",
      "outputs": [],
      "payable": false,
      "stateMutability": "nonpayable",
      "type": "function"
    },
    {
      "constant": false,
      "inputs": [
        {
          "name": "IPFSStrategy",
          "type": "bytes32"
        }
      ],
      "name": "addIPFSStrategy",
      "outputs": [],
      "payable": false,
      "stateMutability": "nonpayable",
      "type": "function"
    },
    {
      "constant": false,
      "inputs": [
        {
          "name": "_doctorAddress",
          "type": "address"
        }
      ],
      "name": "addDoctor",
      "outputs": [],
      "payable": false,
      "stateMutability": "nonpayable",
      "type": "function"
    },
    {
      "constant": false,
      "inputs": [
        {
          "name": "_patient",
          "type": "address"
        },
        {
          "name": "_strategyIPFSHash",
          "type": "bytes32"
        }
      ],
      "name": "createCase",
      "outputs": [],
      "payable": false,
      "stateMutability": "nonpayable",
      "type": "function"
    },
    {
      "constant": false,
      "inputs": [
        {
          "name": "_doctor",
          "type": "address"
        },
        {
          "name": "actionHash",
          "type": "bytes32"
        }
      ],
      "name": "updateCaseByPatient",
      "outputs": [],
      "payable": false,
      "stateMutability": "nonpayable",
      "type": "function"
    },
    {
      "constant": false,
      "inputs": [
        {
          "name": "_patient",
          "type": "address"
        },
        {
          "name": "actionHash",
          "type": "bytes32"
        }
      ],
      "name": "updateCaseByDoctor",
      "outputs": [],
      "payable": false,
      "stateMutability": "nonpayable",
      "type": "function"
    },
    {
      "constant": true,
      "inputs": [
        {
          "name": "_doctor",
          "type": "address"
        },
        {
          "name": "_patient",
          "type": "address"
        }
      ],
      "name": "getCase",
      "outputs": [
        {
          "name": "_IPFSHash",
          "type": "bytes32"
        },
        {
          "name": "_dateExecuted",
          "type": "uint256"
        }
      ],
      "payable": false,
      "stateMutability": "view",
      "type": "function"
    },
    {
      "constant": true,
      "inputs": [],
      "name": "getIPFSStrategyQty",
      "outputs": [
        {
          "name": "",
          "type": "uint256"
        }
      ],
      "payable": false,
      "stateMutability": "view",
      "type": "function"
    },
    {
      "constant": true,
      "inputs": [
        {
          "name": "uid",
          "type": "uint256"
        }
      ],
      "name": "getIPFSStrategyHashById",
      "outputs": [
        {
          "name": "",
          "type": "bytes32"
        }
      ],
      "payable": false,
      "stateMutability": "view",
      "type": "function"
    }
  ],
  "bytecode": "0x608060405234801561001057600080fd5b5060018060003373ffffffffffffffffffffffffffffffffffffffff1673ffffffffffffffffffffffffffffffffffffffff16815260200190815260200160002081905550610ed9806100646000396000f3006080604052600436106100ba576000357c0100000000000000000000000000000000000000000000000000000000900463ffffffff16806329226a98146100bf57806331f8c14b146101085780634780468f1461013357806347c9d36e1461017657806348ea1c23146101fc5780636e7b530c146102bd57806383240f83146102e85780639e070ce814610347578063ad8338b614610398578063c4780d73146103c9578063ec03c1ea1461041a578063fde3c9711461045d575b600080fd5b3480156100cb57600080fd5b506100ea600480360381019080803590602001909291905050506104ae565b60405180826000191660001916815260200191505060405180910390f35b34801561011457600080fd5b5061011d6104e6565b6040518082815260200191505060405180910390f35b34801561013f57600080fd5b50610174600480360381019080803573ffffffffffffffffffffffffffffffffffffffff1690602001909291905050506104f3565b005b34801561018257600080fd5b506101d7600480360381019080803573ffffffffffffffffffffffffffffffffffffffff169060200190929190803573ffffffffffffffffffffffffffffffffffffffff169060200190929190505050610599565b6040518083600019166000191681526020018281526020019250505060405180910390f35b34801561020857600080fd5b5061022b60048036038101908080356000191690602001909291905050506106be565b604051808673ffffffffffffffffffffffffffffffffffffffff1673ffffffffffffffffffffffffffffffffffffffff1681526020018573ffffffffffffffffffffffffffffffffffffffff1673ffffffffffffffffffffffffffffffffffffffff16815260200184600019166000191681526020018381526020018281526020019550505050505060405180910390f35b3480156102c957600080fd5b506102d2610734565b6040518082815260200191505060405180910390f35b3480156102f457600080fd5b506103136004803603810190808035906020019092919050505061073a565b6040518084600019166000191681526020018360001916600019168152602001828152602001935050505060405180910390f35b34801561035357600080fd5b50610396600480360381019080803573ffffffffffffffffffffffffffffffffffffffff1690602001909291908035600019169060200190929190505050610773565b005b3480156103a457600080fd5b506103c760048036038101908080356000191690602001909291905050506109e8565b005b3480156103d557600080fd5b50610418600480360381019080803573ffffffffffffffffffffffffffffffffffffffff1690602001909291908035600019169060200190929190505050610aaa565b005b34801561042657600080fd5b5061045b600480360381019080803573ffffffffffffffffffffffffffffffffffffffff169060200190929190505050610c61565b005b34801561046957600080fd5b506104ac600480360381019080803573ffffffffffffffffffffffffffffffffffffffff1690602001909291908035600019169060200190929190505050610cf6565b005b60006104b86104e6565b821015156104c557600080fd5b6004828154811015156104d457fe5b90600052602060002001549050919050565b6000600480549050905090565b60018060003373ffffffffffffffffffffffffffffffffffffffff1673ffffffffffffffffffffffffffffffffffffffff1681526020019081526020016000205414151561054057600080fd5b6002600160008373ffffffffffffffffffffffffffffffffffffffff1673ffffffffffffffffffffffffffffffffffffffff16815260200190815260200160002081905550600080815480929190600101919050555050565b60008060008484604051808373ffffffffffffffffffffffffffffffffffffffff1673ffffffffffffffffffffffffffffffffffffffff166c010000000000000000000000000281526014018273ffffffffffffffffffffffffffffffffffffffff1673ffffffffffffffffffffffffffffffffffffffff166c01000000000000000000000000028152601401925050506040518091039020905060066005600083600019166000191681526020019081526020016000206004015481548110151561066157fe5b90600052602060002090600302016001015492506006600560008360001916600019168152602001908152602001600020600401548154811015156106a257fe5b9060005260206000209060030201600201549150509250929050565b60056020528060005260406000206000915090508060000160009054906101000a900473ffffffffffffffffffffffffffffffffffffffff16908060010160009054906101000a900473ffffffffffffffffffffffffffffffffffffffff16908060020154908060030154908060040154905085565b60005481565b60068181548110151561074957fe5b90600052602060002090600302016000915090508060000154908060010154908060020154905083565b60006002600160003373ffffffffffffffffffffffffffffffffffffffff1673ffffffffffffffffffffffffffffffffffffffff168152602001908152602001600020541415156107c357600080fd5b600060036000846000191660001916815260200190815260200160002060009054906101000a900473ffffffffffffffffffffffffffffffffffffffff1673ffffffffffffffffffffffffffffffffffffffff161415151561082457600080fd5b3383604051808373ffffffffffffffffffffffffffffffffffffffff1673ffffffffffffffffffffffffffffffffffffffff166c010000000000000000000000000281526014018273ffffffffffffffffffffffffffffffffffffffff1673ffffffffffffffffffffffffffffffffffffffff166c01000000000000000000000000028152601401925050506040518091039020905060a0604051908101604052808473ffffffffffffffffffffffffffffffffffffffff1681526020013373ffffffffffffffffffffffffffffffffffffffff16815260200183600019168152602001428152602001600081525060056000836000191660001916815260200190815260200160002060008201518160000160006101000a81548173ffffffffffffffffffffffffffffffffffffffff021916908373ffffffffffffffffffffffffffffffffffffffff16021790555060208201518160010160006101000a81548173ffffffffffffffffffffffffffffffffffffffff021916908373ffffffffffffffffffffffffffffffffffffffff160217905550604082015181600201906000191690556060820151816003015560808201518160040155905050505050565b6003600160003373ffffffffffffffffffffffffffffffffffffffff1673ffffffffffffffffffffffffffffffffffffffff16815260200190815260200160002054141515610a3657600080fd5b3373ffffffffffffffffffffffffffffffffffffffff1660036000836000191660001916815260200190815260200160002060009054906101000a90505050600481908060018154018082558091505090600182039060005260206000200160009091929091909150906000191690555050565b60003383604051808373ffffffffffffffffffffffffffffffffffffffff1673ffffffffffffffffffffffffffffffffffffffff166c010000000000000000000000000281526014018273ffffffffffffffffffffffffffffffffffffffff1673ffffffffffffffffffffffffffffffffffffffff166c0100000000000000000000000002815260140192505050604051809103902090503373ffffffffffffffffffffffffffffffffffffffff1660056000836000191660001916815260200190815260200160002060010160009054906101000a900473ffffffffffffffffffffffffffffffffffffffff1673ffffffffffffffffffffffffffffffffffffffff16141515610bba57600080fd5b600160066060604051908101604052808460001916815260200185600019168152602001428152509080600181540180825580915050906001820390600052602060002090600302016000909192909190915060008201518160000190600019169055602082015181600101906000191690556040820151816002015550500360056000836000191660001916815260200190815260200160002060040181905550505050565b60018060003373ffffffffffffffffffffffffffffffffffffffff1673ffffffffffffffffffffffffffffffffffffffff16815260200190815260200160002054141515610cae57600080fd5b6003600160008373ffffffffffffffffffffffffffffffffffffffff1673ffffffffffffffffffffffffffffffffffffffff1681526020019081526020016000208190555050565b60008233604051808373ffffffffffffffffffffffffffffffffffffffff1673ffffffffffffffffffffffffffffffffffffffff166c010000000000000000000000000281526014018273ffffffffffffffffffffffffffffffffffffffff1673ffffffffffffffffffffffffffffffffffffffff166c0100000000000000000000000002815260140192505050604051809103902090503373ffffffffffffffffffffffffffffffffffffffff1660056000836000191660001916815260200190815260200160002060000160009054906101000a900473ffffffffffffffffffffffffffffffffffffffff1673ffffffffffffffffffffffffffffffffffffffff16141515610e0657600080fd5b6001600660606040519081016040528084600019168152602001856000191681526020014281525090806001815401808255809150509060018203906000526020600020906003020160009091929091909150600082015181600001906000191690556020820151816001019060001916905560408201518160020155505003600560008360001916600019168152602001908152602001600020600401819055505050505600a165627a7a72305820f9660609f3b27dfedca0907c6b0f2527948d610142d2c5a2d3456be3365483b50029",
  "source": "pragma solidity ^0.4.24;\n\n\ncontract DigitalCare {\n\n    // Events\n\n    // Constants\n\n    // Variables\n\n    uint public doctorsQty;\n    mapping (address => int) usersList;\n\n    address[] strategyProviersList;\n\n    mapping (bytes32 => address) IPFSHashToStrategyProviderTo;\n    bytes32[] IPFSStrategyList;\n\n    struct Case {\n        address patient;\n        address doctor;\n        bytes32 strategyIPFSHash;\n        uint256 dateStrategyStarted;\n        uint256 lastAction;\n    }\n\n    mapping (bytes32 => Case) public cases;\n\n    struct Action {\n        bytes32 caseHash;\n        bytes32 IPFSHash;\n        uint256 dateExecuted;\n    }\n\n    Action[] public actions;\n\n    constructor () public {\n        usersList[msg.sender] = 1;\n\n    }\n\n    // Modifiers\n\n    modifier onlyOwner() {\n        require(usersList[msg.sender] == 1);\n        _;\n     }\n\n    modifier onlyDoctor() {\n        require(usersList[msg.sender] == 2);\n        _;\n     }\n\n    modifier onlyStrategyProvider() {\n        require(usersList[msg.sender] == 3);\n        _;\n     }\n\n    // Functions\n\n    function addStrategyProvider(address _strategyProvider) public onlyOwner {\n         usersList[_strategyProvider] = 3;\n    }\n\n\n    function addIPFSStrategy(bytes32 IPFSStrategy) public onlyStrategyProvider {\n        IPFSHashToStrategyProviderTo[IPFSStrategy] == msg.sender;\n        IPFSStrategyList.push(IPFSStrategy);\n    }\n\n\n    // Add new doctor to list\n    function addDoctor(address _doctorAddress) public onlyOwner {\n        usersList[_doctorAddress] = 2;\n        doctorsQty++;\n    }\n\n\n    function createCase(address _patient, bytes32 _strategyIPFSHash) onlyDoctor {\n        require(IPFSHashToStrategyProviderTo[_strategyIPFSHash] != 0x0);\n        bytes32 caseHash = keccak256(msg.sender, _patient);\n        cases[caseHash] = Case(_patient, msg.sender,  _strategyIPFSHash, now, 0);\n\n    }\n\n    function updateCaseByPatient(address _doctor, bytes32 actionHash) {\n        bytes32 caseHash = keccak256(_doctor, msg.sender);\n        require(cases[caseHash].patient == msg.sender);\n        cases[caseHash].lastAction = actions.push(Action(caseHash, actionHash, now)) - 1;\n\n    }\n\n    function updateCaseByDoctor(address _patient, bytes32 actionHash) {\n        bytes32 caseHash = keccak256(msg.sender, _patient);\n        require(cases[caseHash].doctor == msg.sender);\n        cases[caseHash].lastAction = actions.push(Action(caseHash, actionHash, now)) - 1;\n\n    }\n\n    function getCase(address _doctor, address _patient) public view\n        returns (\n            bytes32 _IPFSHash,\n            uint256 _dateExecuted\n            )\n        {\n        bytes32 caseHash = keccak256(_doctor, _patient);\n        _IPFSHash = actions[cases[caseHash].lastAction].IPFSHash;\n        _dateExecuted = actions[cases[caseHash].lastAction].dateExecuted;\n\n        }\n\n    function getIPFSStrategyQty() public view returns (uint256) {\n        return IPFSStrategyList.length;\n    }\n\n    function getIPFSStrategyHashById(uint uid) public view returns (bytes32){\n        require(uid < getIPFSStrategyQty());\n        return IPFSStrategyList[uid];\n    }\n\n\n}\n",
  "sourcePath": "/Users/mikhail/Coding/hederaHealth/contracts/contracts/DigitalCare.sol",
  "compiler": {
    "name": "solc",
    "version": "0.4.24+commit.e67f0147.Emscripten.clang"
  },
  "schemaVersion": "2.0.1",
  "updatedAt": "2018-10-15T19:18:34.801Z"
}