{
  "contractName": "DigitalCare",
  "abi": [
    {
      "constant": true,
      "inputs": [
        {
          "name": "",
          "type": "bytes32"
        }
      ],
      "name": "cases",
      "outputs": [
        {
          "name": "patient",
          "type": "address"
        },
        {
          "name": "doctor",
          "type": "address"
        },
        {
          "name": "strategyIPFSHash",
          "type": "bytes32"
        },
        {
          "name": "dateStrategyStarted",
          "type": "uint256"
        },
        {
          "name": "lastAction",
          "type": "uint256"
        }
      ],
      "payable": false,
      "stateMutability": "view",
      "type": "function"
    },
    {
      "constant": true,
      "inputs": [],
      "name": "doctorsQty",
      "outputs": [
        {
          "name": "",
          "type": "uint256"
        }
      ],
      "payable": false,
      "stateMutability": "view",
      "type": "function"
    },
    {
      "constant": true,
      "inputs": [
        {
          "name": "",
          "type": "uint256"
        }
      ],
      "name": "actions",
      "outputs": [
        {
          "name": "caseHash",
          "type": "bytes32"
        },
        {
          "name": "IPFSHash",
          "type": "bytes32"
        },
        {
          "name": "dateExecuted",
          "type": "uint256"
        }
      ],
      "payable": false,
      "stateMutability": "view",
      "type": "function"
    },
    {
      "inputs": [],
      "payable": false,
      "stateMutability": "nonpayable",
      "type": "constructor"
    },
    {
      "constant": false,
      "inputs": [
        {
          "name": "_strategyProvider",
          "type": "address"
        }
      ],
      "name": "addStrategyProvider",
      "outputs": [],
      "payable": false,
      "stateMutability": "nonpayable",
      "type": "function"
    },
    {
      "constant": false,
      "inputs": [
        {
          "name": "IPFSStrategy",
          "type": "bytes32"
        }
      ],
      "name": "addIPFSStrategy",
      "outputs": [],
      "payable": false,
      "stateMutability": "nonpayable",
      "type": "function"
    },
    {
      "constant": false,
      "inputs": [
        {
          "name": "_doctorAddress",
          "type": "address"
        }
      ],
      "name": "addDoctor",
      "outputs": [],
      "payable": false,
      "stateMutability": "nonpayable",
      "type": "function"
    },
    {
      "constant": false,
      "inputs": [
        {
          "name": "_patient",
          "type": "address"
        }
      ],
      "name": "addMedicalCase",
      "outputs": [],
      "payable": false,
      "stateMutability": "nonpayable",
      "type": "function"
    },
    {
      "constant": false,
      "inputs": [
        {
          "name": "caseHash",
          "type": "bytes32"
        },
        {
          "name": "actionHash",
          "type": "bytes32"
        }
      ],
      "name": "submitAction",
      "outputs": [],
      "payable": false,
      "stateMutability": "nonpayable",
      "type": "function"
    },
    {
      "constant": true,
      "inputs": [
        {
          "name": "caseHash",
          "type": "bytes32"
        }
      ],
      "name": "getLastActionByCaseHash",
      "outputs": [
        {
          "name": "_caseHash",
          "type": "bytes32"
        },
        {
          "name": "_IPFSHash",
          "type": "bytes32"
        },
        {
          "name": "_dateExecuted",
          "type": "uint256"
        }
      ],
      "payable": false,
      "stateMutability": "view",
      "type": "function"
    },
    {
      "constant": false,
      "inputs": [
        {
          "name": "caseHash",
          "type": "bytes32"
        },
        {
          "name": "_strategyIPFSHash",
          "type": "bytes32"
        }
      ],
      "name": "setupStrategy",
      "outputs": [],
      "payable": false,
      "stateMutability": "nonpayable",
      "type": "function"
    }
  ],
  "bytecode": "0x608060405234801561001057600080fd5b5060018060003373ffffffffffffffffffffffffffffffffffffffff1673ffffffffffffffffffffffffffffffffffffffff16815260200190815260200160002081905550610bdc806100646000396000f3006080604052600436106100a4576000357c0100000000000000000000000000000000000000000000000000000000900463ffffffff1680634780468f146100a957806348ea1c23146100ec5780636e7b530c146101ad57806383240f83146101d8578063a30ef85914610237578063ad8338b614610276578063d11c7afc146102a7578063ec03c1ea146102e6578063ed73edad14610329578063efe55cc41461036c575b600080fd5b3480156100b557600080fd5b506100ea600480360381019080803573ffffffffffffffffffffffffffffffffffffffff1690602001909291905050506103cf565b005b3480156100f857600080fd5b5061011b6004803603810190808035600019169060200190929190505050610475565b604051808673ffffffffffffffffffffffffffffffffffffffff1673ffffffffffffffffffffffffffffffffffffffff1681526020018573ffffffffffffffffffffffffffffffffffffffff1673ffffffffffffffffffffffffffffffffffffffff16815260200184600019166000191681526020018381526020018281526020019550505050505060405180910390f35b3480156101b957600080fd5b506101c26104eb565b6040518082815260200191505060405180910390f35b3480156101e457600080fd5b50610203600480360381019080803590602001909291905050506104f1565b6040518084600019166000191681526020018360001916600019168152602001828152602001935050505060405180910390f35b34801561024357600080fd5b506102746004803603810190808035600019169060200190929190803560001916906020019092919050505061052a565b005b34801561028257600080fd5b506102a56004803603810190808035600019169060200190929190505050610648565b005b3480156102b357600080fd5b506102e4600480360381019080803560001916906020019092919080356000191690602001909291905050506106d8565b005b3480156102f257600080fd5b50610327600480360381019080803573ffffffffffffffffffffffffffffffffffffffff169060200190929190505050610834565b005b34801561033557600080fd5b5061036a600480360381019080803573ffffffffffffffffffffffffffffffffffffffff1690602001909291905050506108c9565b005b34801561037857600080fd5b5061039b6004803603810190808035600019169060200190929190505050610ae1565b6040518084600019166000191681526020018360001916600019168152602001828152602001935050505060405180910390f35b60018060003373ffffffffffffffffffffffffffffffffffffffff1673ffffffffffffffffffffffffffffffffffffffff1681526020019081526020016000205414151561041c57600080fd5b6002600160008373ffffffffffffffffffffffffffffffffffffffff1673ffffffffffffffffffffffffffffffffffffffff16815260200190815260200160002081905550600080815480929190600101919050555050565b60046020528060005260406000206000915090508060000160009054906101000a900473ffffffffffffffffffffffffffffffffffffffff16908060010160009054906101000a900473ffffffffffffffffffffffffffffffffffffffff16908060020154908060030154908060040154905085565b60005481565b60058181548110151561050057fe5b90600052602060002090600302016000915090508060000154908060010154908060020154905083565b3373ffffffffffffffffffffffffffffffffffffffff1660046000846000191660001916815260200190815260200160002060000160009054906101000a900473ffffffffffffffffffffffffffffffffffffffff1673ffffffffffffffffffffffffffffffffffffffff161415156105a257600080fd5b6001600560606040519081016040528085600019168152602001846000191681526020014281525090806001815401808255809150509060018203906000526020600020906003020160009091929091909150600082015181600001906000191690556020820151816001019060001916905560408201518160020155505003600460008460001916600019168152602001908152602001600020600401819055505050565b6003600160003373ffffffffffffffffffffffffffffffffffffffff1673ffffffffffffffffffffffffffffffffffffffff1681526020019081526020016000205414151561069657600080fd5b3373ffffffffffffffffffffffffffffffffffffffff1660036000836000191660001916815260200190815260200160002060009054906101000a9050505050565b600060036000836000191660001916815260200190815260200160002060009054906101000a900473ffffffffffffffffffffffffffffffffffffffff1673ffffffffffffffffffffffffffffffffffffffff161415151561073957600080fd5b3373ffffffffffffffffffffffffffffffffffffffff1660046000846000191660001916815260200190815260200160002060010160009054906101000a900473ffffffffffffffffffffffffffffffffffffffff1673ffffffffffffffffffffffffffffffffffffffff161415156107b157600080fd5b60006001026004600084600019166000191681526020019081526020016000206002015460001916141515156107e657600080fd5b80600460008460001916600019168152602001908152602001600020600201816000191690555042600460008460001916600019168152602001908152602001600020600301819055505050565b60018060003373ffffffffffffffffffffffffffffffffffffffff1673ffffffffffffffffffffffffffffffffffffffff1681526020019081526020016000205414151561088157600080fd5b6003600160008373ffffffffffffffffffffffffffffffffffffffff1673ffffffffffffffffffffffffffffffffffffffff1681526020019081526020016000208190555050565b60006002600160003373ffffffffffffffffffffffffffffffffffffffff1673ffffffffffffffffffffffffffffffffffffffff1681526020019081526020016000205414151561091957600080fd5b3382604051808373ffffffffffffffffffffffffffffffffffffffff1673ffffffffffffffffffffffffffffffffffffffff166c010000000000000000000000000281526014018273ffffffffffffffffffffffffffffffffffffffff1673ffffffffffffffffffffffffffffffffffffffff166c01000000000000000000000000028152601401925050506040518091039020905060a0604051908101604052808373ffffffffffffffffffffffffffffffffffffffff1681526020013373ffffffffffffffffffffffffffffffffffffffff168152602001600060010260001916815260200160008152602001600081525060046000836000191660001916815260200190815260200160002060008201518160000160006101000a81548173ffffffffffffffffffffffffffffffffffffffff021916908373ffffffffffffffffffffffffffffffffffffffff16021790555060208201518160010160006101000a81548173ffffffffffffffffffffffffffffffffffffffff021916908373ffffffffffffffffffffffffffffffffffffffff1602179055506040820151816002019060001916905560608201518160030155608082015181600401559050505050565b6000806000600560046000866000191660001916815260200190815260200160002060040154815481101515610b1357fe5b9060005260206000209060030201600001549250600560046000866000191660001916815260200190815260200160002060040154815481101515610b5457fe5b9060005260206000209060030201600101549150600560046000866000191660001916815260200190815260200160002060040154815481101515610b9557fe5b906000526020600020906003020160020154905091939092505600a165627a7a72305820062d4ba81d3b63723adfd686e42613f1aef8a26802ca37e29f31474435ea13750029",
  "source": "pragma solidity ^0.4.24;\n\n\ncontract DigitalCare {\n\n    // Events\n\n    // Constants\n\n    // Variables\n\n    uint public doctorsQty;\n    mapping (address => int) doctorInList;\n\n    address[] strategyProviersList;\n\n    mapping (bytes32 => address) IPFSHashToStrategyProviderTo;\n\n    struct Case {\n        address patient;\n        address doctor;\n        bytes32 strategyIPFSHash;\n        uint256 dateStrategyStarted;\n        uint256 lastAction;\n    }\n\n    mapping (bytes32 => Case) public cases;\n\n    struct Action {\n        bytes32 caseHash;\n        bytes32 IPFSHash;\n        uint256 dateExecuted;\n    }\n\n    Action[] public actions;\n\n    constructor () public {\n        doctorInList[msg.sender] = 1;\n\n    }\n\n    // Modifiers\n\n    modifier onlyOwner() {\n        require(doctorInList[msg.sender] == 1);\n        _;\n     }\n\n    modifier onlyDoctor() {\n        require(doctorInList[msg.sender] == 2);\n        _;\n     }\n\n    modifier onlyStrategyProvider() {\n        require(doctorInList[msg.sender] == 3);\n        _;\n     }\n\n    // Functions\n\n    function addStrategyProvider(address _strategyProvider) public onlyOwner {\n         doctorInList[_strategyProvider] = 3;\n    }\n\n\n    function addIPFSStrategy(bytes32 IPFSStrategy) public onlyStrategyProvider {\n        IPFSHashToStrategyProviderTo[IPFSStrategy] == msg.sender;\n    }\n\n\n    // Add new doctor to list\n    function addDoctor(address _doctorAddress) public onlyOwner {\n        doctorInList[_doctorAddress] = 2;\n        doctorsQty++;\n    }\n\n\n    function addMedicalCase(address _patient) onlyDoctor {\n        bytes32 caseHash = keccak256(msg.sender, _patient);\n        cases[caseHash] = Case(_patient, msg.sender, 0, 0, 0);\n    }\n\n    function submitAction(bytes32 caseHash, bytes32 actionHash) {\n        require(cases[caseHash].patient == msg.sender);\n        cases[caseHash].lastAction = actions.push(Action(caseHash, actionHash, now)) - 1;\n\n    }\n\n    function getLastActionByCaseHash(bytes32 caseHash) public view\n        returns (\n            bytes32 _caseHash,\n            bytes32 _IPFSHash,\n            uint256 _dateExecuted\n            )\n        {\n        _caseHash = actions[cases[caseHash].lastAction].caseHash;\n        _IPFSHash = actions[cases[caseHash].lastAction].IPFSHash;\n        _dateExecuted = actions[cases[caseHash].lastAction].dateExecuted;\n\n        }\n\n    function setupStrategy(bytes32 caseHash, bytes32 _strategyIPFSHash) public {\n        require(IPFSHashToStrategyProviderTo[_strategyIPFSHash] != 0x0);\n        require(cases[caseHash].doctor == msg.sender);\n        require(cases[caseHash].strategyIPFSHash != 0);\n        cases[caseHash].strategyIPFSHash = _strategyIPFSHash;\n        cases[caseHash].dateStrategyStarted = now;\n    }\n\n\n\n\n}\n",
  "sourcePath": "/Users/mikhail/Coding/hederaHealth/contracts/contracts/DigitalCare.sol",
  "compiler": {
    "name": "solc",
    "version": "0.4.24+commit.e67f0147.Emscripten.clang"
  },
  "schemaVersion": "2.0.1",
  "updatedAt": "2018-10-15T18:01:46.443Z"
}