{
  "contractName": "Strategy",
  "abi": [
    {
      "constant": true,
      "inputs": [],
      "name": "providerName",
      "outputs": [
        {
          "name": "",
          "type": "string"
        }
      ],
      "payable": false,
      "stateMutability": "view",
      "type": "function"
    },
    {
      "constant": true,
      "inputs": [],
      "name": "strategyHolder",
      "outputs": [
        {
          "name": "",
          "type": "address"
        }
      ],
      "payable": false,
      "stateMutability": "view",
      "type": "function"
    },
    {
      "constant": true,
      "inputs": [],
      "name": "government",
      "outputs": [
        {
          "name": "",
          "type": "address"
        }
      ],
      "payable": false,
      "stateMutability": "view",
      "type": "function"
    },
    {
      "constant": true,
      "inputs": [],
      "name": "PLANNED",
      "outputs": [
        {
          "name": "",
          "type": "uint8"
        }
      ],
      "payable": false,
      "stateMutability": "view",
      "type": "function"
    },
    {
      "constant": false,
      "inputs": [],
      "name": "renounceOwnership",
      "outputs": [],
      "payable": false,
      "stateMutability": "nonpayable",
      "type": "function"
    },
    {
      "constant": true,
      "inputs": [
        {
          "name": "",
          "type": "address"
        }
      ],
      "name": "registeredCases",
      "outputs": [
        {
          "name": "",
          "type": "bool"
        }
      ],
      "payable": false,
      "stateMutability": "view",
      "type": "function"
    },
    {
      "constant": true,
      "inputs": [],
      "name": "EXECUTED",
      "outputs": [
        {
          "name": "",
          "type": "uint8"
        }
      ],
      "payable": false,
      "stateMutability": "view",
      "type": "function"
    },
    {
      "constant": true,
      "inputs": [
        {
          "name": "",
          "type": "uint256"
        }
      ],
      "name": "actionsOwnerHashes",
      "outputs": [
        {
          "name": "",
          "type": "address"
        }
      ],
      "payable": false,
      "stateMutability": "view",
      "type": "function"
    },
    {
      "constant": true,
      "inputs": [
        {
          "name": "",
          "type": "uint256"
        }
      ],
      "name": "actions",
      "outputs": [
        {
          "name": "caseAddress",
          "type": "address"
        },
        {
          "name": "status",
          "type": "uint8"
        },
        {
          "name": "action",
          "type": "string"
        },
        {
          "name": "datePlanned",
          "type": "uint256"
        },
        {
          "name": "dateExecuted",
          "type": "uint256"
        },
        {
          "name": "qty",
          "type": "uint256"
        }
      ],
      "payable": false,
      "stateMutability": "view",
      "type": "function"
    },
    {
      "constant": true,
      "inputs": [],
      "name": "owner",
      "outputs": [
        {
          "name": "",
          "type": "address"
        }
      ],
      "payable": false,
      "stateMutability": "view",
      "type": "function"
    },
    {
      "constant": true,
      "inputs": [],
      "name": "CANCELLED",
      "outputs": [
        {
          "name": "",
          "type": "uint8"
        }
      ],
      "payable": false,
      "stateMutability": "view",
      "type": "function"
    },
    {
      "constant": false,
      "inputs": [
        {
          "name": "_newOwner",
          "type": "address"
        }
      ],
      "name": "transferOwnership",
      "outputs": [],
      "payable": false,
      "stateMutability": "nonpayable",
      "type": "function"
    },
    {
      "inputs": [
        {
          "name": "_providerName",
          "type": "string"
        },
        {
          "name": "_strategyHolder",
          "type": "address"
        }
      ],
      "payable": false,
      "stateMutability": "nonpayable",
      "type": "constructor"
    },
    {
      "anonymous": false,
      "inputs": [
        {
          "indexed": true,
          "name": "previousOwner",
          "type": "address"
        }
      ],
      "name": "OwnershipRenounced",
      "type": "event"
    },
    {
      "anonymous": false,
      "inputs": [
        {
          "indexed": true,
          "name": "previousOwner",
          "type": "address"
        },
        {
          "indexed": true,
          "name": "newOwner",
          "type": "address"
        }
      ],
      "name": "OwnershipTransferred",
      "type": "event"
    },
    {
      "constant": false,
      "inputs": [
        {
          "name": "_case",
          "type": "address"
        }
      ],
      "name": "addRegisterCase",
      "outputs": [],
      "payable": false,
      "stateMutability": "nonpayable",
      "type": "function"
    },
    {
      "constant": false,
      "inputs": [
        {
          "name": "_case",
          "type": "address"
        },
        {
          "name": "_action",
          "type": "string"
        },
        {
          "name": "_datePlanned",
          "type": "uint256"
        },
        {
          "name": "_dateExecute",
          "type": "uint256"
        }
      ],
      "name": "addNextAction",
      "outputs": [
        {
          "name": "",
          "type": "uint256"
        }
      ],
      "payable": false,
      "stateMutability": "nonpayable",
      "type": "function"
    },
    {
      "constant": false,
      "inputs": [
        {
          "name": "_actionId",
          "type": "uint256"
        }
      ],
      "name": "submitAction",
      "outputs": [
        {
          "name": "",
          "type": "bool"
        }
      ],
      "payable": false,
      "stateMutability": "nonpayable",
      "type": "function"
    },
    {
      "constant": true,
      "inputs": [
        {
          "name": "_actionId",
          "type": "uint256"
        }
      ],
      "name": "getActionById",
      "outputs": [
        {
          "name": "_case",
          "type": "address"
        },
        {
          "name": "_status",
          "type": "uint8"
        },
        {
          "name": "_action",
          "type": "string"
        },
        {
          "name": "_datePlanned",
          "type": "uint256"
        },
        {
          "name": "_dateExecuted",
          "type": "uint256"
        },
        {
          "name": "_qty",
          "type": "uint256"
        }
      ],
      "payable": false,
      "stateMutability": "view",
      "type": "function"
    }
  ],
  "bytecode": "0x60806040523480156200001157600080fd5b50604051620015fb380380620015fb8339810180604052810190808051820192919060200180519060200190929190505050336000806101000a81548173ffffffffffffffffffffffffffffffffffffffff021916908373ffffffffffffffffffffffffffffffffffffffff16021790555081600390805190602001906200009b92919062000126565b5033600160006101000a81548173ffffffffffffffffffffffffffffffffffffffff021916908373ffffffffffffffffffffffffffffffffffffffff16021790555080600260006101000a81548173ffffffffffffffffffffffffffffffffffffffff021916908373ffffffffffffffffffffffffffffffffffffffff1602179055505050620001d5565b828054600181600116156101000203166002900490600052602060002090601f016020900481019282601f106200016957805160ff19168380011785556200019a565b828001600101855582156200019a579182015b82811115620001995782518255916020019190600101906200017c565b5b509050620001a99190620001ad565b5090565b620001d291905b80821115620001ce576000816000905550600101620001b4565b5090565b90565b61141680620001e56000396000f3006080604052600436106100e5576000357c0100000000000000000000000000000000000000000000000000000000900463ffffffff168062dad7d4146100ea5780630db875ce1461017a5780630ee5535714610275578063227ba6b3146102cc5780632672f5261461030f5780633cfcab4914610366578063489e38b414610397578063583972be14610448578063715018a61461048d5780637609a7ed146104a4578063785bbe43146104ff5780637f5552f51461053057806383240f831461059d5780638da5cb5b14610698578063ae71dcdf146106ef578063f2fde38b14610720575b600080fd5b3480156100f657600080fd5b506100ff610763565b6040518080602001828103825283818151815260200191508051906020019080838360005b8381101561013f578082015181840152602081019050610124565b50505050905090810190601f16801561016c5780820380516001836020036101000a031916815260200191505b509250505060405180910390f35b34801561018657600080fd5b506101a560048036038101908080359060200190929190505050610801565b604051808773ffffffffffffffffffffffffffffffffffffffff1673ffffffffffffffffffffffffffffffffffffffff1681526020018660ff1660ff16815260200180602001858152602001848152602001838152602001828103825286818151815260200191508051906020019080838360005b8381101561023557808201518184015260208101905061021a565b50505050905090810190601f1680156102625780820380516001836020036101000a031916815260200191505b5097505050505050505060405180910390f35b34801561028157600080fd5b5061028a610a27565b604051808273ffffffffffffffffffffffffffffffffffffffff1673ffffffffffffffffffffffffffffffffffffffff16815260200191505060405180910390f35b3480156102d857600080fd5b5061030d600480360381019080803573ffffffffffffffffffffffffffffffffffffffff169060200190929190505050610a4d565b005b34801561031b57600080fd5b50610324610b03565b604051808273ffffffffffffffffffffffffffffffffffffffff1673ffffffffffffffffffffffffffffffffffffffff16815260200191505060405180910390f35b34801561037257600080fd5b5061037b610b29565b604051808260ff1660ff16815260200191505060405180910390f35b3480156103a357600080fd5b50610432600480360381019080803573ffffffffffffffffffffffffffffffffffffffff169060200190929190803590602001908201803590602001908080601f01602080910402602001604051908101604052809392919081815260200183838082843782019150505050505091929192908035906020019092919080359060200190929190505050610b2e565b6040518082815260200191505060405180910390f35b34801561045457600080fd5b5061047360048036038101908080359060200190929190505050610cb9565b604051808215151515815260200191505060405180910390f35b34801561049957600080fd5b506104a2610f50565b005b3480156104b057600080fd5b506104e5600480360381019080803573ffffffffffffffffffffffffffffffffffffffff169060200190929190505050611052565b604051808215151515815260200191505060405180910390f35b34801561050b57600080fd5b50610514611072565b604051808260ff1660ff16815260200191505060405180910390f35b34801561053c57600080fd5b5061055b60048036038101908080359060200190929190505050611077565b604051808273ffffffffffffffffffffffffffffffffffffffff1673ffffffffffffffffffffffffffffffffffffffff16815260200191505060405180910390f35b3480156105a957600080fd5b506105c8600480360381019080803590602001909291905050506110aa565b604051808773ffffffffffffffffffffffffffffffffffffffff1673ffffffffffffffffffffffffffffffffffffffff1681526020018660ff1660ff16815260200180602001858152602001848152602001838152602001828103825286818151815260200191508051906020019080838360005b8381101561065857808201518184015260208101905061063d565b50505050905090810190601f1680156106855780820380516001836020036101000a031916815260200191505b5097505050505050505060405180910390f35b3480156106a457600080fd5b506106ad6111ba565b604051808273ffffffffffffffffffffffffffffffffffffffff1673ffffffffffffffffffffffffffffffffffffffff16815260200191505060405180910390f35b3480156106fb57600080fd5b506107046111df565b604051808260ff1660ff16815260200191505060405180910390f35b34801561072c57600080fd5b50610761600480360381019080803573ffffffffffffffffffffffffffffffffffffffff1690602001909291905050506111e4565b005b60038054600181600116156101000203166002900480601f0160208091040260200160405190810160405280929190818152602001828054600181600116156101000203166002900480156107f95780601f106107ce576101008083540402835291602001916107f9565b820191906000526020600020905b8154815290600101906020018083116107dc57829003601f168201915b505050505081565b6000806060600080600060048054905087101515610887576040517f08c379a00000000000000000000000000000000000000000000000000000000081526004018080602001828103825260168152602001807f416374696f6e20646f6573206e6f742065786973742e0000000000000000000081525060200191505060405180910390fd5b60048781548110151561089657fe5b906000526020600020906005020160000160009054906101000a900473ffffffffffffffffffffffffffffffffffffffff1695506004878154811015156108d957fe5b906000526020600020906005020160000160149054906101000a900460ff16945060048781548110151561090957fe5b90600052602060002090600502016001018054600181600116156101000203166002900480601f0160208091040260200160405190810160405280929190818152602001828054600181600116156101000203166002900480156109ae5780601f10610983576101008083540402835291602001916109ae565b820191906000526020600020905b81548152906001019060200180831161099157829003601f168201915b505050505093506004878154811015156109c457fe5b90600052602060002090600502016002015492506004878154811015156109e757fe5b9060005260206000209060050201600301549150600487815481101515610a0a57fe5b906000526020600020906005020160040154905091939550919395565b600260009054906101000a900473ffffffffffffffffffffffffffffffffffffffff1681565b6000809054906101000a900473ffffffffffffffffffffffffffffffffffffffff1673ffffffffffffffffffffffffffffffffffffffff163373ffffffffffffffffffffffffffffffffffffffff16141515610aa857600080fd5b6001600660008373ffffffffffffffffffffffffffffffffffffffff1673ffffffffffffffffffffffffffffffffffffffff16815260200190815260200160002060006101000a81548160ff02191690831515021790555050565b600160009054906101000a900473ffffffffffffffffffffffffffffffffffffffff1681565b600181565b600080600260009054906101000a900473ffffffffffffffffffffffffffffffffffffffff1673ffffffffffffffffffffffffffffffffffffffff163373ffffffffffffffffffffffffffffffffffffffff16141515610b8d57600080fd5b6001600460c0604051908101604052808973ffffffffffffffffffffffffffffffffffffffff168152602001600160ff16815260200188815260200187815260200186815260200160008152509080600181540180825580915050906001820390600052602060002090600502016000909192909190915060008201518160000160006101000a81548173ffffffffffffffffffffffffffffffffffffffff021916908373ffffffffffffffffffffffffffffffffffffffff16021790555060208201518160000160146101000a81548160ff021916908360ff1602179055506040820151816001019080519060200190610c89929190611345565b50606082015181600201556080820151816003015560a08201518160040155505003905080915050949350505050565b600060048054905082101515610d37576040517f08c379a00000000000000000000000000000000000000000000000000000000081526004018080602001828103825260168152602001807f416374696f6e20646f6573206e6f742065786973742e0000000000000000000081525060200191505060405180910390fd5b3373ffffffffffffffffffffffffffffffffffffffff16600483815481101515610d5d57fe5b906000526020600020906005020160000160009054906101000a900473ffffffffffffffffffffffffffffffffffffffff1673ffffffffffffffffffffffffffffffffffffffff16141515610e40576040517f08c379a00000000000000000000000000000000000000000000000000000000081526004018080602001828103825260258152602001807f4361736520686173206e6f207065726d697373696f6e20746f206368616e676581526020017f207468617400000000000000000000000000000000000000000000000000000081525060400191505060405180910390fd5b600160ff16600483815481101515610e5457fe5b906000526020600020906005020160000160149054906101000a900460ff1660ff16141515610f11576040517f08c379a00000000000000000000000000000000000000000000000000000000081526004018080602001828103825260258152602001807f596f752063616e277420617070726f7665206e6f7420706c616e6e656420616381526020017f74696f6e7300000000000000000000000000000000000000000000000000000081525060400191505060405180910390fd5b6002600483815481101515610f2257fe5b906000526020600020906005020160000160146101000a81548160ff021916908360ff160217905550919050565b6000809054906101000a900473ffffffffffffffffffffffffffffffffffffffff1673ffffffffffffffffffffffffffffffffffffffff163373ffffffffffffffffffffffffffffffffffffffff16141515610fab57600080fd5b6000809054906101000a900473ffffffffffffffffffffffffffffffffffffffff1673ffffffffffffffffffffffffffffffffffffffff167ff8df31144d9c2f0f6b59d69b8b98abd5459d07f2742c4df920b25aae33c6482060405160405180910390a260008060006101000a81548173ffffffffffffffffffffffffffffffffffffffff021916908373ffffffffffffffffffffffffffffffffffffffff160217905550565b60066020528060005260406000206000915054906101000a900460ff1681565b600281565b60056020528060005260406000206000915054906101000a900473ffffffffffffffffffffffffffffffffffffffff1681565b6004818154811015156110b957fe5b90600052602060002090600502016000915090508060000160009054906101000a900473ffffffffffffffffffffffffffffffffffffffff16908060000160149054906101000a900460ff1690806001018054600181600116156101000203166002900480601f01602080910402602001604051908101604052809291908181526020018280546001816001161561010002031660029004801561119e5780601f106111735761010080835404028352916020019161119e565b820191906000526020600020905b81548152906001019060200180831161118157829003601f168201915b5050505050908060020154908060030154908060040154905086565b6000809054906101000a900473ffffffffffffffffffffffffffffffffffffffff1681565b600381565b6000809054906101000a900473ffffffffffffffffffffffffffffffffffffffff1673ffffffffffffffffffffffffffffffffffffffff163373ffffffffffffffffffffffffffffffffffffffff1614151561123f57600080fd5b6112488161124b565b50565b600073ffffffffffffffffffffffffffffffffffffffff168173ffffffffffffffffffffffffffffffffffffffff161415151561128757600080fd5b8073ffffffffffffffffffffffffffffffffffffffff166000809054906101000a900473ffffffffffffffffffffffffffffffffffffffff1673ffffffffffffffffffffffffffffffffffffffff167f8be0079c531659141344cd1fd0a4f28419497f9722a3daafe3b4186f6b6457e060405160405180910390a3806000806101000a81548173ffffffffffffffffffffffffffffffffffffffff021916908373ffffffffffffffffffffffffffffffffffffffff16021790555050565b828054600181600116156101000203166002900490600052602060002090601f016020900481019282601f1061138657805160ff19168380011785556113b4565b828001600101855582156113b4579182015b828111156113b3578251825591602001919060010190611398565b5b5090506113c191906113c5565b5090565b6113e791905b808211156113e35760008160009055506001016113cb565b5090565b905600a165627a7a723058209ad00172eeef6a299c6323b0241dd755b1111626461989eb91cac36f7a1a23830029",
  "source": "pragma solidity ^0.4.24;\n\nimport \"openzeppelin-solidity/contracts/math/SafeMath.sol\";\nimport \"openzeppelin-solidity/contracts/token/ERC721/ERC721.sol\";\nimport \"openzeppelin-solidity/contracts/token/ERC20/MintableToken.sol\";\nimport \"openzeppelin-solidity/contracts/token/ERC20/BurnableToken.sol\";\n\nimport \"./Case.sol\";\nimport \"./Government.sol\";\n\n    /*\n     * @title OptionInterface\n     *\n     * @dev The Whitelist contract has a whitelist of addresses, and provides basic authorization control functions.\n     * This simplifies the implementation of \"user permissions\".\n     *\n     * @author: Mikhail Lazarev (mikael.lazarev@tokenstarter.io)\n     *\n     */\n\ncontract Strategy is Ownable {\n\n    using SafeMath for uint256;\n\n    uint8 constant public PLANNED = 1;\n    uint8 constant public EXECUTED = 2;\n    uint8 constant public CANCELLED = 3;\n\n    // Variables\n    address public government;\n    address public strategyHolder;\n    string public providerName;\n\n    struct Action {\n        address caseAddress;\n        uint8 status;\n        string action;\n        uint256 datePlanned;\n        uint256 dateExecuted;\n        uint256 qty;\n    }\n\n    Action[] public actions;\n\n    mapping (uint => address) public actionsOwnerHashes;\n    mapping (address => bool) public registeredCases;\n\n\tconstructor(string _providerName, address _strategyHolder)\n        public\n    {\n        providerName = _providerName;\n        government = msg.sender;\n        strategyHolder = _strategyHolder;\n\n    }\n\n    modifier onlyStrategyHolder() {\n        require(msg.sender == strategyHolder);\n        _;\n    }\n\n    modifier onlyRegisteredCases() {\n        require(registeredCases[msg.sender]);\n        _;\n    }\n\n    // Only goverment could register cases\n    function addRegisterCase(address _case) public onlyOwner {\n        registeredCases[_case] = true;\n    }\n\n    function addNextAction(\n        address _case,\n        string _action,\n        uint256 _datePlanned,\n        uint256 _dateExecute)\n        public\n        onlyStrategyHolder\n        returns (uint)\n\n        {\n        uint newActionId = actions.push(Action(_case, PLANNED, _action, _datePlanned, _dateExecute, 0)) - 1;\n        return newActionId;\n        }\n\n    function submitAction(uint _actionId) public returns (bool) {\n        require(_actionId < actions.length, \"Action does not exist.\");\n        require(actions[_actionId].caseAddress == msg.sender, \"Case has no permission to change that\");\n        require(actions[_actionId].status == PLANNED, \"You can't approve not planned actions\");\n        actions[_actionId].status = EXECUTED ;\n    }\n\n    function getActionById(uint _actionId) public view\n        returns (\n            address _case,\n            uint8 _status,\n            string _action,\n            uint256 _datePlanned,\n            uint256 _dateExecuted,\n            uint256 _qty\n        ) {\n\n            require(_actionId < actions.length, \"Action does not exist.\");\n\n            _case = actions[_actionId].caseAddress;\n            _status = actions[_actionId].status;\n            _action = actions[_actionId].action;\n            _datePlanned = actions[_actionId].datePlanned;\n            _dateExecuted = actions[_actionId].dateExecuted;\n            _qty = actions[_actionId].qty;\n\n\n    }\n}",
  "sourcePath": "/Users/mikhail/Coding/hederaHealth/contracts/contracts/Strategy.sol",
  "compiler": {
    "name": "solc",
    "version": "0.4.24+commit.e67f0147.Emscripten.clang"
  },
  "schemaVersion": "2.0.1",
  "updatedAt": "2018-10-15T15:59:09.248Z"
}