{
  "contractName": "OptionFactory",
  "abi": [
    {
      "constant": false,
      "inputs": [
        {
          "name": "_address",
          "type": "address"
        }
      ],
      "name": "removeFromStartupWhiteList",
      "outputs": [],
      "payable": false,
      "stateMutability": "nonpayable",
      "type": "function"
    },
    {
      "constant": true,
      "inputs": [
        {
          "name": "_address",
          "type": "address"
        }
      ],
      "name": "checkStartupWhitelisted",
      "outputs": [
        {
          "name": "",
          "type": "bool"
        }
      ],
      "payable": false,
      "stateMutability": "view",
      "type": "function"
    },
    {
      "constant": false,
      "inputs": [
        {
          "name": "_address",
          "type": "address"
        }
      ],
      "name": "addToStartupWhiteList",
      "outputs": [],
      "payable": false,
      "stateMutability": "nonpayable",
      "type": "function"
    },
    {
      "constant": false,
      "inputs": [
        {
          "name": "_address",
          "type": "address"
        }
      ],
      "name": "setAdmin",
      "outputs": [],
      "payable": false,
      "stateMutability": "nonpayable",
      "type": "function"
    },
    {
      "constant": false,
      "inputs": [],
      "name": "renounceOwnership",
      "outputs": [],
      "payable": false,
      "stateMutability": "nonpayable",
      "type": "function"
    },
    {
      "constant": true,
      "inputs": [],
      "name": "owner",
      "outputs": [
        {
          "name": "",
          "type": "address"
        }
      ],
      "payable": false,
      "stateMutability": "view",
      "type": "function"
    },
    {
      "constant": true,
      "inputs": [
        {
          "name": "",
          "type": "address"
        }
      ],
      "name": "whitelist",
      "outputs": [
        {
          "name": "",
          "type": "bool"
        }
      ],
      "payable": false,
      "stateMutability": "view",
      "type": "function"
    },
    {
      "constant": false,
      "inputs": [
        {
          "name": "_newOwner",
          "type": "address"
        }
      ],
      "name": "transferOwnership",
      "outputs": [],
      "payable": false,
      "stateMutability": "nonpayable",
      "type": "function"
    },
    {
      "constant": true,
      "inputs": [],
      "name": "admin",
      "outputs": [
        {
          "name": "",
          "type": "address"
        }
      ],
      "payable": false,
      "stateMutability": "view",
      "type": "function"
    },
    {
      "constant": true,
      "inputs": [
        {
          "name": "",
          "type": "uint256"
        }
      ],
      "name": "contractBase",
      "outputs": [
        {
          "name": "",
          "type": "address"
        }
      ],
      "payable": false,
      "stateMutability": "view",
      "type": "function"
    },
    {
      "anonymous": false,
      "inputs": [
        {
          "indexed": false,
          "name": "id",
          "type": "uint256"
        },
        {
          "indexed": true,
          "name": "optionSaleContractAddress",
          "type": "address"
        }
      ],
      "name": "OptionContractsCreated",
      "type": "event"
    },
    {
      "anonymous": false,
      "inputs": [
        {
          "indexed": true,
          "name": "_address",
          "type": "address"
        }
      ],
      "name": "SetAdmin",
      "type": "event"
    },
    {
      "anonymous": false,
      "inputs": [
        {
          "indexed": true,
          "name": "_address",
          "type": "address"
        }
      ],
      "name": "Whitelisted",
      "type": "event"
    },
    {
      "anonymous": false,
      "inputs": [
        {
          "indexed": true,
          "name": "previousOwner",
          "type": "address"
        }
      ],
      "name": "OwnershipRenounced",
      "type": "event"
    },
    {
      "anonymous": false,
      "inputs": [
        {
          "indexed": true,
          "name": "previousOwner",
          "type": "address"
        },
        {
          "indexed": true,
          "name": "newOwner",
          "type": "address"
        }
      ],
      "name": "OwnershipTransferred",
      "type": "event"
    },
    {
      "constant": false,
      "inputs": [
        {
          "name": "_optionPremiumRate",
          "type": "uint256"
        },
        {
          "name": "_strikePriceRate",
          "type": "uint256"
        },
        {
          "name": "_expiredAt",
          "type": "uint256"
        },
        {
          "name": "_salesStartTime",
          "type": "uint256"
        },
        {
          "name": "_salesFinishTime",
          "type": "uint256"
        },
        {
          "name": "_tokenContract",
          "type": "address"
        },
        {
          "name": "_tokenWallet",
          "type": "address"
        },
        {
          "name": "_tokenContractIsMintable",
          "type": "bool"
        },
        {
          "name": "_startup",
          "type": "address"
        }
      ],
      "name": "createOptionContracts",
      "outputs": [
        {
          "name": "",
          "type": "address"
        }
      ],
      "payable": false,
      "stateMutability": "nonpayable",
      "type": "function"
    },
    {
      "constant": true,
      "inputs": [],
      "name": "getContractsQty",
      "outputs": [
        {
          "name": "",
          "type": "uint256"
        }
      ],
      "payable": false,
      "stateMutability": "view",
      "type": "function"
    },
    {
      "constant": true,
      "inputs": [
        {
          "name": "uid",
          "type": "uint256"
        }
      ],
      "name": "getOptionParameters",
      "outputs": [
        {
          "name": "optionPremiumRate",
          "type": "uint256"
        },
        {
          "name": "optionStrikePriceRate",
          "type": "uint256"
        },
        {
          "name": "optionExpiredAt",
          "type": "uint256"
        },
        {
          "name": "salesStartTime",
          "type": "uint256"
        },
        {
          "name": "salesFinishTime",
          "type": "uint256"
        },
        {
          "name": "salesIsGoing",
          "type": "bool"
        }
      ],
      "payable": false,
      "stateMutability": "view",
      "type": "function"
    },
    {
      "constant": true,
      "inputs": [
        {
          "name": "uid",
          "type": "uint256"
        }
      ],
      "name": "getSaleContractAddress",
      "outputs": [
        {
          "name": "",
          "type": "address"
        }
      ],
      "payable": false,
      "stateMutability": "view",
      "type": "function"
    },
    {
      "constant": true,
      "inputs": [
        {
          "name": "uid",
          "type": "uint256"
        }
      ],
      "name": "getContractsInfo",
      "outputs": [
        {
          "name": "optionSaleContractAddress",
          "type": "address"
        },
        {
          "name": "optionTokenContractAddress",
          "type": "address"
        },
        {
          "name": "tokenContractAddress",
          "type": "address"
        },
        {
          "name": "optionTokenName",
          "type": "string"
        },
        {
          "name": "optionTokenSymbol",
          "type": "string"
        },
        {
          "name": "optionTokenDecimals",
          "type": "uint8"
        }
      ],
      "payable": false,
      "stateMutability": "view",
      "type": "function"
    }
  ],
  "bytecode": "0x6080604052336000806101000a81548173ffffffffffffffffffffffffffffffffffffffff021916908373ffffffffffffffffffffffffffffffffffffffff160217905550615cff806100536000396000f3006080604052600436106100db576000357c0100000000000000000000000000000000000000000000000000000000900463ffffffff168063084c5f61146100e057806344ad20b31461012357806344ef08331461017e578063704b6c02146101c1578063715018a61461020457806385fe223d1461021b5780638da5cb5b146102835780638f2d797c146102da578063908c1807146104925780639b19251a146104ff578063a05994281461055a578063eaad3d541461065b578063f2fde38b14610686578063f851a440146106c9578063fa7a0c3c14610720575b600080fd5b3480156100ec57600080fd5b50610121600480360381019080803573ffffffffffffffffffffffffffffffffffffffff16906020019092919050505061078d565b005b34801561012f57600080fd5b50610164600480360381019080803573ffffffffffffffffffffffffffffffffffffffff1690602001909291905050506108d7565b604051808215151515815260200191505060405180910390f35b34801561018a57600080fd5b506101bf600480360381019080803573ffffffffffffffffffffffffffffffffffffffff16906020019092919050505061092d565b005b3480156101cd57600080fd5b50610202600480360381019080803573ffffffffffffffffffffffffffffffffffffffff169060200190929190505050610aba565b005b34801561021057600080fd5b50610219610bd8565b005b34801561022757600080fd5b5061024660048036038101908080359060200190929190505050610cda565b6040518087815260200186815260200185815260200184815260200183815260200182151515158152602001965050505050505060405180910390f35b34801561028f57600080fd5b50610298610ebf565b604051808273ffffffffffffffffffffffffffffffffffffffff1673ffffffffffffffffffffffffffffffffffffffff16815260200191505060405180910390f35b3480156102e657600080fd5b5061030560048036038101908080359060200190929190505050610ee4565b604051808773ffffffffffffffffffffffffffffffffffffffff1673ffffffffffffffffffffffffffffffffffffffff1681526020018673ffffffffffffffffffffffffffffffffffffffff1673ffffffffffffffffffffffffffffffffffffffff1681526020018573ffffffffffffffffffffffffffffffffffffffff1673ffffffffffffffffffffffffffffffffffffffff16815260200180602001806020018460ff1660ff168152602001838103835286818151815260200191508051906020019080838360005b838110156103eb5780820151818401526020810190506103d0565b50505050905090810190601f1680156104185780820380516001836020036101000a031916815260200191505b50838103825285818151815260200191508051906020019080838360005b83811015610451578082015181840152602081019050610436565b50505050905090810190601f16801561047e5780820380516001836020036101000a031916815260200191505b509850505050505050505060405180910390f35b34801561049e57600080fd5b506104bd600480360381019080803590602001909291905050506113e6565b604051808273ffffffffffffffffffffffffffffffffffffffff1673ffffffffffffffffffffffffffffffffffffffff16815260200191505060405180910390f35b34801561050b57600080fd5b50610540600480360381019080803573ffffffffffffffffffffffffffffffffffffffff169060200190929190505050611429565b604051808215151515815260200191505060405180910390f35b34801561056657600080fd5b506106196004803603810190808035906020019092919080359060200190929190803590602001909291908035906020019092919080359060200190929190803573ffffffffffffffffffffffffffffffffffffffff169060200190929190803573ffffffffffffffffffffffffffffffffffffffff169060200190929190803515159060200190929190803573ffffffffffffffffffffffffffffffffffffffff169060200190929190505050611449565b604051808273ffffffffffffffffffffffffffffffffffffffff1673ffffffffffffffffffffffffffffffffffffffff16815260200191505060405180910390f35b34801561066757600080fd5b50610670611678565b6040518082815260200191505060405180910390f35b34801561069257600080fd5b506106c7600480360381019080803573ffffffffffffffffffffffffffffffffffffffff169060200190929190505050611685565b005b3480156106d557600080fd5b506106de6116ec565b604051808273ffffffffffffffffffffffffffffffffffffffff1673ffffffffffffffffffffffffffffffffffffffff16815260200191505060405180910390f35b34801561072c57600080fd5b5061074b60048036038101908080359060200190929190505050611712565b604051808273ffffffffffffffffffffffffffffffffffffffff1673ffffffffffffffffffffffffffffffffffffffff16815260200191505060405180910390f35b600160009054906101000a900473ffffffffffffffffffffffffffffffffffffffff1673ffffffffffffffffffffffffffffffffffffffff163373ffffffffffffffffffffffffffffffffffffffff16148061083557506000809054906101000a900473ffffffffffffffffffffffffffffffffffffffff1673ffffffffffffffffffffffffffffffffffffffff163373ffffffffffffffffffffffffffffffffffffffff16145b151561084057600080fd5b600073ffffffffffffffffffffffffffffffffffffffff168173ffffffffffffffffffffffffffffffffffffffff161415151561087c57600080fd5b6000600260008373ffffffffffffffffffffffffffffffffffffffff1673ffffffffffffffffffffffffffffffffffffffff16815260200190815260200160002060006101000a81548160ff02191690831515021790555050565b6000600260008373ffffffffffffffffffffffffffffffffffffffff1673ffffffffffffffffffffffffffffffffffffffff16815260200190815260200160002060009054906101000a900460ff169050919050565b600160009054906101000a900473ffffffffffffffffffffffffffffffffffffffff1673ffffffffffffffffffffffffffffffffffffffff163373ffffffffffffffffffffffffffffffffffffffff1614806109d557506000809054906101000a900473ffffffffffffffffffffffffffffffffffffffff1673ffffffffffffffffffffffffffffffffffffffff163373ffffffffffffffffffffffffffffffffffffffff16145b15156109e057600080fd5b600073ffffffffffffffffffffffffffffffffffffffff168173ffffffffffffffffffffffffffffffffffffffff1614151515610a1c57600080fd5b6001600260008373ffffffffffffffffffffffffffffffffffffffff1673ffffffffffffffffffffffffffffffffffffffff16815260200190815260200160002060006101000a81548160ff0219169083151502179055508073ffffffffffffffffffffffffffffffffffffffff167faab7954e9d246b167ef88aeddad35209ca2489d95a8aeb59e288d9b19fae5a5460405160405180910390a250565b6000809054906101000a900473ffffffffffffffffffffffffffffffffffffffff1673ffffffffffffffffffffffffffffffffffffffff163373ffffffffffffffffffffffffffffffffffffffff16141515610b1557600080fd5b600073ffffffffffffffffffffffffffffffffffffffff168173ffffffffffffffffffffffffffffffffffffffff1614151515610b5157600080fd5b80600160006101000a81548173ffffffffffffffffffffffffffffffffffffffff021916908373ffffffffffffffffffffffffffffffffffffffff1602179055508073ffffffffffffffffffffffffffffffffffffffff167f5a272403b402d892977df56625f4164ccaf70ca3863991c43ecfe76a6905b0a160405160405180910390a250565b6000809054906101000a900473ffffffffffffffffffffffffffffffffffffffff1673ffffffffffffffffffffffffffffffffffffffff163373ffffffffffffffffffffffffffffffffffffffff16141515610c3357600080fd5b6000809054906101000a900473ffffffffffffffffffffffffffffffffffffffff1673ffffffffffffffffffffffffffffffffffffffff167ff8df31144d9c2f0f6b59d69b8b98abd5459d07f2742c4df920b25aae33c6482060405160405180910390a260008060006101000a81548173ffffffffffffffffffffffffffffffffffffffff021916908373ffffffffffffffffffffffffffffffffffffffff160217905550565b6000806000806000806000610ced611678565b8811151515610cfb57600080fd5b600388815481101515610d0a57fe5b9060005260206000200160009054906101000a900473ffffffffffffffffffffffffffffffffffffffff1690508073ffffffffffffffffffffffffffffffffffffffff16632e6262596040518163ffffffff167c0100000000000000000000000000000000000000000000000000000000028152600401606060405180830381600087803b158015610d9b57600080fd5b505af1158015610daf573d6000803e3d6000fd5b505050506040513d6060811015610dc557600080fd5b810190808051906020019092919080519060200190929190805190602001909291905050508097508198508299505050508073ffffffffffffffffffffffffffffffffffffffff1663810d7ee26040518163ffffffff167c0100000000000000000000000000000000000000000000000000000000028152600401606060405180830381600087803b158015610e5a57600080fd5b505af1158015610e6e573d6000803e3d6000fd5b505050506040513d6060811015610e8457600080fd5b810190808051906020019092919080519060200190929190805190602001909291905050508094508195508296505050505091939550919395565b6000809054906101000a900473ffffffffffffffffffffffffffffffffffffffff1681565b60008060006060806000806000600389815481101515610f0057fe5b9060005260206000200160009054906101000a900473ffffffffffffffffffffffffffffffffffffffff169750600389815481101515610f3c57fe5b9060005260206000200160009054906101000a900473ffffffffffffffffffffffffffffffffffffffff1691508173ffffffffffffffffffffffffffffffffffffffff166366630e2d6040518163ffffffff167c0100000000000000000000000000000000000000000000000000000000028152600401602060405180830381600087803b158015610fcd57600080fd5b505af1158015610fe1573d6000803e3d6000fd5b505050506040513d6020811015610ff757600080fd5b810190808051906020019092919050505096508173ffffffffffffffffffffffffffffffffffffffff166302c7249d6040518163ffffffff167c0100000000000000000000000000000000000000000000000000000000028152600401602060405180830381600087803b15801561106e57600080fd5b505af1158015611082573d6000803e3d6000fd5b505050506040513d602081101561109857600080fd5b810190808051906020019092919050505090508173ffffffffffffffffffffffffffffffffffffffff166355a373d66040518163ffffffff167c0100000000000000000000000000000000000000000000000000000000028152600401602060405180830381600087803b15801561110f57600080fd5b505af1158015611123573d6000803e3d6000fd5b505050506040513d602081101561113957600080fd5b810190808051906020019092919050505095508073ffffffffffffffffffffffffffffffffffffffff166306fdde036040518163ffffffff167c0100000000000000000000000000000000000000000000000000000000028152600401600060405180830381600087803b1580156111b057600080fd5b505af11580156111c4573d6000803e3d6000fd5b505050506040513d6000823e3d601f19601f8201168201806040525060208110156111ee57600080fd5b81019080805164010000000081111561120657600080fd5b8281019050602081018481111561121c57600080fd5b815185600182028301116401000000008211171561123957600080fd5b505092919050505094508073ffffffffffffffffffffffffffffffffffffffff166395d89b416040518163ffffffff167c0100000000000000000000000000000000000000000000000000000000028152600401600060405180830381600087803b1580156112a757600080fd5b505af11580156112bb573d6000803e3d6000fd5b505050506040513d6000823e3d601f19601f8201168201806040525060208110156112e557600080fd5b8101908080516401000000008111156112fd57600080fd5b8281019050602081018481111561131357600080fd5b815185600182028301116401000000008211171561133057600080fd5b505092919050505093508073ffffffffffffffffffffffffffffffffffffffff1663313ce5676040518163ffffffff167c0100000000000000000000000000000000000000000000000000000000028152600401602060405180830381600087803b15801561139e57600080fd5b505af11580156113b2573d6000803e3d6000fd5b505050506040513d60208110156113c857600080fd5b81019080805190602001909291905050509250505091939550919395565b60006003828154811015156113f757fe5b9060005260206000200160009054906101000a900473ffffffffffffffffffffffffffffffffffffffff169050919050565b60026020528060005260406000206000915054906101000a900460ff1681565b6000806000611457336108d7565b151561146257600080fd5b8b8b8b8b8b8b8b8b8b61147361184a565b808a81526020018981526020018881526020018781526020018681526020018573ffffffffffffffffffffffffffffffffffffffff1673ffffffffffffffffffffffffffffffffffffffff1681526020018473ffffffffffffffffffffffffffffffffffffffff1673ffffffffffffffffffffffffffffffffffffffff168152602001831515151581526020018273ffffffffffffffffffffffffffffffffffffffff1673ffffffffffffffffffffffffffffffffffffffff1681526020019950505050505050505050604051809103906000f080158015611559573d6000803e3d6000fd5b509150600160038390806001815401808255809150509060018203906000526020600020016000909192909190916101000a81548173ffffffffffffffffffffffffffffffffffffffff021916908373ffffffffffffffffffffffffffffffffffffffff160217905550039050336004600083815260200190815260200160002060006101000a81548173ffffffffffffffffffffffffffffffffffffffff021916908373ffffffffffffffffffffffffffffffffffffffff1602179055508173ffffffffffffffffffffffffffffffffffffffff167f20521efe4495eae9886c6355f7411923d5865ec617803e8a55316e56bb85805a826040518082815260200191505060405180910390a281925050509998505050505050505050565b6000600380549050905090565b6000809054906101000a900473ffffffffffffffffffffffffffffffffffffffff1673ffffffffffffffffffffffffffffffffffffffff163373ffffffffffffffffffffffffffffffffffffffff161415156116e057600080fd5b6116e981611750565b50565b600160009054906101000a900473ffffffffffffffffffffffffffffffffffffffff1681565b60038181548110151561172157fe5b906000526020600020016000915054906101000a900473ffffffffffffffffffffffffffffffffffffffff1681565b600073ffffffffffffffffffffffffffffffffffffffff168173ffffffffffffffffffffffffffffffffffffffff161415151561178c57600080fd5b8073ffffffffffffffffffffffffffffffffffffffff166000809054906101000a900473ffffffffffffffffffffffffffffffffffffffff1673ffffffffffffffffffffffffffffffffffffffff167f8be0079c531659141344cd1fd0a4f28419497f9722a3daafe3b4186f6b6457e060405160405180910390a3806000806101000a81548173ffffffffffffffffffffffffffffffffffffffff021916908373ffffffffffffffffffffffffffffffffffffffff16021790555050565b6040516144798061185b83390190560060806040526000600a60156101000a81548160ff0219169083151502179055506000600a60166101000a81548160ff0219169083151502179055506000600a60176101000a81548160ff02191690831515021790555034801561006157600080fd5b5060405161012080614479833981018060405281019080805190602001909291908051906020019092919080519060200190929190805190602001909291908051906020019092919080519060200190929190805190602001909291908051906020019092919080519060200190929190505050336000806101000a81548173ffffffffffffffffffffffffffffffffffffffff021916908373ffffffffffffffffffffffffffffffffffffffff16021790555033600160006101000a81548173ffffffffffffffffffffffffffffffffffffffff021916908373ffffffffffffffffffffffffffffffffffffffff16021790555080600260006101000a81548173ffffffffffffffffffffffffffffffffffffffff021916908373ffffffffffffffffffffffffffffffffffffffff160217905550886004819055508760058190555086600681905550856007819055508460088190555083600960006101000a81548173ffffffffffffffffffffffffffffffffffffffff021916908373ffffffffffffffffffffffffffffffffffffffff16021790555082600a60006101000a81548173ffffffffffffffffffffffffffffffffffffffff021916908373ffffffffffffffffffffffffffffffffffffffff16021790555081600a60146101000a81548160ff02191690831515021790555050505050505050505061420b8061026e6000396000f30060806040526004361062000157576000357c0100000000000000000000000000000000000000000000000000000000900463ffffffff16806302c7249d146200028f5780631b54c02514620002e95780631f2698ab14620003175780632e62625914620003495780633ccfd60b146200038557806355a373d6146200039f578063562df3d514620003f95780635c975abb146200042757806361f3c62e146200045957806366630e2d1462000473578063715018a614620004cd5780637a7024c014620004e7578063810d7ee2146200051557806381f84f3614620005555780638452576914620005835780638456cb5914620005b157806386143c0414620005cb5780638da5cb5b14620005fd5780638f86f5ea1462000657578063b51dfefd1462000671578063bef4876b1462000748578063f2fde38b146200077a578063f8aa9f3a14620007c0578063febf8981146200081a575b60006200016362000848565b15156200016f57600080fd5b62000186600454346200090c90919063ffffffff16565b9050600360009054906101000a900473ffffffffffffffffffffffffffffffffffffffff1673ffffffffffffffffffffffffffffffffffffffff166340c10f1933836040518363ffffffff167c0100000000000000000000000000000000000000000000000000000000028152600401808373ffffffffffffffffffffffffffffffffffffffff1673ffffffffffffffffffffffffffffffffffffffff16815260200182815260200192505050602060405180830381600087803b1580156200024e57600080fd5b505af115801562000263573d6000803e3d6000fd5b505050506040513d60208110156200027a57600080fd5b81019080805190602001909291905050505050005b3480156200029c57600080fd5b50620002a762000948565b604051808273ffffffffffffffffffffffffffffffffffffffff1673ffffffffffffffffffffffffffffffffffffffff16815260200191505060405180910390f35b348015620002f657600080fd5b50620003016200096e565b6040518082815260200191505060405180910390f35b3480156200032457600080fd5b506200032f62000974565b604051808215151515815260200191505060405180910390f35b3480156200035657600080fd5b506200036162000987565b60405180848152602001838152602001828152602001935050505060405180910390f35b3480156200039257600080fd5b506200039d620009a0565b005b348015620003ac57600080fd5b50620003b762000b38565b604051808273ffffffffffffffffffffffffffffffffffffffff1673ffffffffffffffffffffffffffffffffffffffff16815260200191505060405180910390f35b3480156200040657600080fd5b506200041162000b5e565b6040518082815260200191505060405180910390f35b3480156200043457600080fd5b506200043f62000b63565b604051808215151515815260200191505060405180910390f35b3480156200046657600080fd5b506200047162000b76565b005b3480156200048057600080fd5b506200048b62000bf0565b604051808273ffffffffffffffffffffffffffffffffffffffff1673ffffffffffffffffffffffffffffffffffffffff16815260200191505060405180910390f35b348015620004da57600080fd5b50620004e562000c1a565b005b348015620004f457600080fd5b50620004ff62000d1d565b6040518082815260200191505060405180910390f35b3480156200052257600080fd5b506200052d62000d23565b6040518084815260200183815260200182151515158152602001935050505060405180910390f35b3480156200056257600080fd5b506200056d62000d43565b6040518082815260200191505060405180910390f35b3480156200059057600080fd5b506200059b62000d49565b6040518082815260200191505060405180910390f35b348015620005be57600080fd5b50620005c962000d4f565b005b348015620005d857600080fd5b50620005e362000848565b604051808215151515815260200191505060405180910390f35b3480156200060a57600080fd5b506200061562000dc9565b604051808273ffffffffffffffffffffffffffffffffffffffff1673ffffffffffffffffffffffffffffffffffffffff16815260200191505060405180910390f35b3480156200066457600080fd5b506200066f62000dee565b005b3480156200067e57600080fd5b506200072e600480360381019080803590602001908201803590602001908080601f0160208091040260200160405190810160405280939291908181526020018383808284378201915050505050509192919290803590602001908201803590602001908080601f0160208091040260200160405190810160405280939291908181526020018383808284378201915050505050509192919290803560ff16906020019092919050505062000e72565b604051808215151515815260200191505060405180910390f35b3480156200075557600080fd5b5062000760620011ac565b604051808215151515815260200191505060405180910390f35b3480156200078757600080fd5b50620007be600480360381019080803573ffffffffffffffffffffffffffffffffffffffff169060200190929190505050620011bf565b005b348015620007cd57600080fd5b50620007d862001229565b604051808273ffffffffffffffffffffffffffffffffffffffff1673ffffffffffffffffffffffffffffffffffffffff16815260200191505060405180910390f35b3480156200082757600080fd5b5062000832620012f4565b6040518082815260200191505060405180910390f35b60008073ffffffffffffffffffffffffffffffffffffffff16600360009054906101000a900473ffffffffffffffffffffffffffffffffffffffff1673ffffffffffffffffffffffffffffffffffffffff1614158015620008b65750600a60169054906101000a900460ff16155b8015620008d05750600a60179054906101000a900460ff16155b8015620008e95750600a60159054906101000a900460ff165b8015620008f857506007544210155b80156200090757506008544211155b905090565b60008083141562000921576000905062000942565b81830290508183828115156200093357fe5b041415156200093e57fe5b8090505b92915050565b600360009054906101000a900473ffffffffffffffffffffffffffffffffffffffff1681565b60075481565b600a60159054906101000a900460ff1681565b6000806000600454925060055491506006549050909192565b600080600260009054906101000a900473ffffffffffffffffffffffffffffffffffffffff1673ffffffffffffffffffffffffffffffffffffffff163373ffffffffffffffffffffffffffffffffffffffff1614151562000a0057600080fd5b62000a42606462000a3360013073ffffffffffffffffffffffffffffffffffffffff16316200090c90919063ffffffff16565b620012fa90919063ffffffff16565b9150813073ffffffffffffffffffffffffffffffffffffffff1631039050600160009054906101000a900473ffffffffffffffffffffffffffffffffffffffff1673ffffffffffffffffffffffffffffffffffffffff166108fc839081150290604051600060405180830381858888f1935050505015801562000ac9573d6000803e3d6000fd5b50600260009054906101000a900473ffffffffffffffffffffffffffffffffffffffff1673ffffffffffffffffffffffffffffffffffffffff166108fc829081150290604051600060405180830381858888f1935050505015801562000b33573d6000803e3d6000fd5b505050565b600960009054906101000a900473ffffffffffffffffffffffffffffffffffffffff1681565b600181565b600a60169054906101000a900460ff1681565b600260009054906101000a900473ffffffffffffffffffffffffffffffffffffffff1673ffffffffffffffffffffffffffffffffffffffff163373ffffffffffffffffffffffffffffffffffffffff1614151562000bd357600080fd5b6000600a60166101000a81548160ff021916908315150217905550565b6000600360009054906101000a900473ffffffffffffffffffffffffffffffffffffffff16905090565b6000809054906101000a900473ffffffffffffffffffffffffffffffffffffffff1673ffffffffffffffffffffffffffffffffffffffff163373ffffffffffffffffffffffffffffffffffffffff1614151562000c7657600080fd5b6000809054906101000a900473ffffffffffffffffffffffffffffffffffffffff1673ffffffffffffffffffffffffffffffffffffffff167ff8df31144d9c2f0f6b59d69b8b98abd5459d07f2742c4df920b25aae33c6482060405160405180910390a260008060006101000a81548173ffffffffffffffffffffffffffffffffffffffff021916908373ffffffffffffffffffffffffffffffffffffffff160217905550565b60045481565b60008060006007549250600854915062000d3c62000848565b9050909192565b60065481565b60085481565b600260009054906101000a900473ffffffffffffffffffffffffffffffffffffffff1673ffffffffffffffffffffffffffffffffffffffff163373ffffffffffffffffffffffffffffffffffffffff1614151562000dac57600080fd5b6001600a60166101000a81548160ff021916908315150217905550565b6000809054906101000a900473ffffffffffffffffffffffffffffffffffffffff1681565b600260009054906101000a900473ffffffffffffffffffffffffffffffffffffffff1673ffffffffffffffffffffffffffffffffffffffff163373ffffffffffffffffffffffffffffffffffffffff1614151562000e4b57600080fd5b6001600a60176101000a81548160ff02191690831515021790555062000e70620009a0565b565b6000600260009054906101000a900473ffffffffffffffffffffffffffffffffffffffff1673ffffffffffffffffffffffffffffffffffffffff163373ffffffffffffffffffffffffffffffffffffffff1614151562000ed157600080fd5b600a60159054906101000a900460ff1615151562000eee57600080fd5b838383600554600654600960009054906101000a900473ffffffffffffffffffffffffffffffffffffffff16600a60009054906101000a900473ffffffffffffffffffffffffffffffffffffffff16600a60149054906101000a900460ff16600260009054906101000a900473ffffffffffffffffffffffffffffffffffffffff1662000f7a6200140c565b8080602001806020018a60ff1660ff1681526020018981526020018881526020018773ffffffffffffffffffffffffffffffffffffffff1673ffffffffffffffffffffffffffffffffffffffff1681526020018673ffffffffffffffffffffffffffffffffffffffff1673ffffffffffffffffffffffffffffffffffffffff168152602001851515151581526020018473ffffffffffffffffffffffffffffffffffffffff1673ffffffffffffffffffffffffffffffffffffffff16815260200183810383528c818151815260200191508051906020019080838360005b838110156200107557808201518184015260208101905062001058565b50505050905090810190601f168015620010a35780820380516001836020036101000a031916815260200191505b5083810382528b818151815260200191508051906020019080838360005b83811015620010de578082015181840152602081019050620010c1565b50505050905090810190601f1680156200110c5780820380516001836020036101000a031916815260200191505b509b505050505050505050505050604051809103906000f08015801562001137573d6000803e3d6000fd5b50600360006101000a81548173ffffffffffffffffffffffffffffffffffffffff021916908373ffffffffffffffffffffffffffffffffffffffff1602179055506001600a60156101000a81548160ff021916908315150217905550600a60159054906101000a900460ff1690509392505050565b600a60179054906101000a900460ff1681565b6000809054906101000a900473ffffffffffffffffffffffffffffffffffffffff1673ffffffffffffffffffffffffffffffffffffffff163373ffffffffffffffffffffffffffffffffffffffff161415156200121b57600080fd5b620012268162001311565b50565b6000600360009054906101000a900473ffffffffffffffffffffffffffffffffffffffff1673ffffffffffffffffffffffffffffffffffffffff166355a373d66040518163ffffffff167c0100000000000000000000000000000000000000000000000000000000028152600401602060405180830381600087803b158015620012b257600080fd5b505af1158015620012c7573d6000803e3d6000fd5b505050506040513d6020811015620012de57600080fd5b8101908080519060200190929190505050905090565b60055481565b600081838115156200130857fe5b04905092915050565b600073ffffffffffffffffffffffffffffffffffffffff168173ffffffffffffffffffffffffffffffffffffffff16141515156200134e57600080fd5b8073ffffffffffffffffffffffffffffffffffffffff166000809054906101000a900473ffffffffffffffffffffffffffffffffffffffff1673ffffffffffffffffffffffffffffffffffffffff167f8be0079c531659141344cd1fd0a4f28419497f9722a3daafe3b4186f6b6457e060405160405180910390a3806000806101000a81548173ffffffffffffffffffffffffffffffffffffffff021916908373ffffffffffffffffffffffffffffffffffffffff16021790555050565b604051612dc2806200141e83390190560060806040526000600360146101000a81548160ff0219169083151502179055503480156200002c57600080fd5b5060405162002dc238038062002dc283398101806040528101908080518201929190602001805182019291906020018051906020019092919080519060200190929190805190602001909291908051906020019092919080519060200190929190805190602001909291908051906020019092919050505033600360006101000a81548173ffffffffffffffffffffffffffffffffffffffff021916908373ffffffffffffffffffffffffffffffffffffffff16021790555080600560006101000a81548173ffffffffffffffffffffffffffffffffffffffff021916908373ffffffffffffffffffffffffffffffffffffffff16021790555033600460006101000a81548173ffffffffffffffffffffffffffffffffffffffff021916908373ffffffffffffffffffffffffffffffffffffffff16021790555088600690805190602001906200017f92919062000281565b5087600790805190602001906200019892919062000281565b5086600860006101000a81548160ff021916908360ff1602179055508560098190555084600a819055506212750063ffffffff16600a5401600b8190555083600c60006101000a81548173ffffffffffffffffffffffffffffffffffffffff021916908373ffffffffffffffffffffffffffffffffffffffff16021790555081600d60146101000a81548160ff02191690831515021790555082600d60006101000a81548173ffffffffffffffffffffffffffffffffffffffff021916908373ffffffffffffffffffffffffffffffffffffffff16021790555050505050505050505062000330565b828054600181600116156101000203166002900490600052602060002090601f016020900481019282601f10620002c457805160ff1916838001178555620002f5565b82800160010185558215620002f5579182015b82811115620002f4578251825591602001919060010190620002d7565b5b50905062000304919062000308565b5090565b6200032d91905b80821115620003295760008160009055506001016200030f565b5090565b90565b612a8280620003406000396000f30060806040526004361061016a576000357c0100000000000000000000000000000000000000000000000000000000900463ffffffff16806305d2035b146102ee57806306fdde031461031d578063095ea7b3146103ad57806318160ddd146104125780631d2a41601461043d57806323b872dd14610468578063313ce567146104ed5780633ccfd60b1461051e57806340c10f191461053557806342966c681461059a578063498337b1146105c757806355a373d6146105f6578063575dd0331461064d57806361904f4814610664578063661884631461068f57806370a08231146106f4578063715018a61461074b57806372213ea4146107625780637d64bcb41461078d5780638da5cb5b146107bc57806395d89b4114610813578063a9059cbb146108a3578063b3892c6414610908578063bff99c6c1461095f578063d73dd623146109b6578063dd62ed3e14610a1b578063eddbb7f914610a92578063f2fde38b14610ac9575b6000600a544210151561017c57600080fd5b61019160095434610b0c90919063ffffffff16565b905061019c81610b44565b600c60009054906101000a900473ffffffffffffffffffffffffffffffffffffffff1673ffffffffffffffffffffffffffffffffffffffff1663a9059cbb33836040518363ffffffff167c0100000000000000000000000000000000000000000000000000000000028152600401808373ffffffffffffffffffffffffffffffffffffffff1673ffffffffffffffffffffffffffffffffffffffff16815260200182815260200192505050602060405180830381600087803b15801561026157600080fd5b505af1158015610275573d6000803e3d6000fd5b505050506040513d602081101561028b57600080fd5b8101908080519060200190929190505050503373ffffffffffffffffffffffffffffffffffffffff167f5d42dbd5369e5e17d11d332fc8d48d52e1354158393b2251c241f542dfeab7d6826040518082815260200191505060405180910390a250005b3480156102fa57600080fd5b50610303610b51565b604051808215151515815260200191505060405180910390f35b34801561032957600080fd5b50610332610b64565b6040518080602001828103825283818151815260200191508051906020019080838360005b83811015610372578082015181840152602081019050610357565b50505050905090810190601f16801561039f5780820380516001836020036101000a031916815260200191505b509250505060405180910390f35b3480156103b957600080fd5b506103f8600480360381019080803573ffffffffffffffffffffffffffffffffffffffff16906020019092919080359060200190929190505050610c02565b604051808215151515815260200191505060405180910390f35b34801561041e57600080fd5b50610427610cf4565b6040518082815260200191505060405180910390f35b34801561044957600080fd5b50610452610cfe565b6040518082815260200191505060405180910390f35b34801561047457600080fd5b506104d3600480360381019080803573ffffffffffffffffffffffffffffffffffffffff169060200190929190803573ffffffffffffffffffffffffffffffffffffffff16906020019092919080359060200190929190505050610d04565b604051808215151515815260200191505060405180910390f35b3480156104f957600080fd5b506105026110bf565b604051808260ff1660ff16815260200191505060405180910390f35b34801561052a57600080fd5b506105336110d2565b005b34801561054157600080fd5b50610580600480360381019080803573ffffffffffffffffffffffffffffffffffffffff16906020019092919080359060200190929190505050611208565b604051808215151515815260200191505060405180910390f35b3480156105a657600080fd5b506105c560048036038101908080359060200190929190505050610b44565b005b3480156105d357600080fd5b506105dc6117d7565b604051808215151515815260200191505060405180910390f35b34801561060257600080fd5b5061060b6117ea565b604051808273ffffffffffffffffffffffffffffffffffffffff1673ffffffffffffffffffffffffffffffffffffffff16815260200191505060405180910390f35b34801561065957600080fd5b50610662611810565b005b34801561067057600080fd5b50610679611ab7565b6040518082815260200191505060405180910390f35b34801561069b57600080fd5b506106da600480360381019080803573ffffffffffffffffffffffffffffffffffffffff16906020019092919080359060200190929190505050611abd565b604051808215151515815260200191505060405180910390f35b34801561070057600080fd5b50610735600480360381019080803573ffffffffffffffffffffffffffffffffffffffff169060200190929190505050611d4f565b6040518082815260200191505060405180910390f35b34801561075757600080fd5b50610760611d97565b005b34801561076e57600080fd5b50610777611e9c565b6040518082815260200191505060405180910390f35b34801561079957600080fd5b506107a2611ea2565b604051808215151515815260200191505060405180910390f35b3480156107c857600080fd5b506107d1611f6a565b604051808273ffffffffffffffffffffffffffffffffffffffff1673ffffffffffffffffffffffffffffffffffffffff16815260200191505060405180910390f35b34801561081f57600080fd5b50610828611f90565b6040518080602001828103825283818151815260200191508051906020019080838360005b8381101561086857808201518184015260208101905061084d565b50505050905090810190601f1680156108955780820380516001836020036101000a031916815260200191505b509250505060405180910390f35b3480156108af57600080fd5b506108ee600480360381019080803573ffffffffffffffffffffffffffffffffffffffff1690602001909291908035906020019092919050505061202e565b604051808215151515815260200191505060405180910390f35b34801561091457600080fd5b5061091d61224e565b604051808273ffffffffffffffffffffffffffffffffffffffff1673ffffffffffffffffffffffffffffffffffffffff16815260200191505060405180910390f35b34801561096b57600080fd5b50610974612274565b604051808273ffffffffffffffffffffffffffffffffffffffff1673ffffffffffffffffffffffffffffffffffffffff16815260200191505060405180910390f35b3480156109c257600080fd5b50610a01600480360381019080803573ffffffffffffffffffffffffffffffffffffffff1690602001909291908035906020019092919050505061229a565b604051808215151515815260200191505060405180910390f35b348015610a2757600080fd5b50610a7c600480360381019080803573ffffffffffffffffffffffffffffffffffffffff169060200190929190803573ffffffffffffffffffffffffffffffffffffffff169060200190929190505050612496565b6040518082815260200191505060405180910390f35b348015610a9e57600080fd5b50610aa761251d565b604051808263ffffffff1663ffffffff16815260200191505060405180910390f35b348015610ad557600080fd5b50610b0a600480360381019080803573ffffffffffffffffffffffffffffffffffffffff169060200190929190505050612524565b005b600080831415610b1f5760009050610b3e565b8183029050818382811515610b3057fe5b04141515610b3a57fe5b8090505b92915050565b610b4e338261258c565b50565b600360149054906101000a900460ff1681565b60068054600181600116156101000203166002900480601f016020809104026020016040519081016040528092919081815260200182805460018160011615610100020316600290048015610bfa5780601f10610bcf57610100808354040283529160200191610bfa565b820191906000526020600020905b815481529060010190602001808311610bdd57829003601f168201915b505050505081565b600081600260003373ffffffffffffffffffffffffffffffffffffffff1673ffffffffffffffffffffffffffffffffffffffff16815260200190815260200160002060008573ffffffffffffffffffffffffffffffffffffffff1673ffffffffffffffffffffffffffffffffffffffff168152602001908152602001600020819055508273ffffffffffffffffffffffffffffffffffffffff163373ffffffffffffffffffffffffffffffffffffffff167f8c5be1e5ebec7d5bd14f71427d1e84f3dd0314c0f7b2291e5b200ac8c7c3b925846040518082815260200191505060405180910390a36001905092915050565b6000600154905090565b600b5481565b60008060008573ffffffffffffffffffffffffffffffffffffffff1673ffffffffffffffffffffffffffffffffffffffff168152602001908152602001600020548211151515610d5357600080fd5b600260008573ffffffffffffffffffffffffffffffffffffffff1673ffffffffffffffffffffffffffffffffffffffff16815260200190815260200160002060003373ffffffffffffffffffffffffffffffffffffffff1673ffffffffffffffffffffffffffffffffffffffff168152602001908152602001600020548211151515610dde57600080fd5b600073ffffffffffffffffffffffffffffffffffffffff168373ffffffffffffffffffffffffffffffffffffffff1614151515610e1a57600080fd5b610e6b826000808773ffffffffffffffffffffffffffffffffffffffff1673ffffffffffffffffffffffffffffffffffffffff1681526020019081526020016000205461273f90919063ffffffff16565b6000808673ffffffffffffffffffffffffffffffffffffffff1673ffffffffffffffffffffffffffffffffffffffff16815260200190815260200160002081905550610efe826000808673ffffffffffffffffffffffffffffffffffffffff1673ffffffffffffffffffffffffffffffffffffffff1681526020019081526020016000205461275890919063ffffffff16565b6000808573ffffffffffffffffffffffffffffffffffffffff1673ffffffffffffffffffffffffffffffffffffffff16815260200190815260200160002081905550610fcf82600260008773ffffffffffffffffffffffffffffffffffffffff1673ffffffffffffffffffffffffffffffffffffffff16815260200190815260200160002060003373ffffffffffffffffffffffffffffffffffffffff1673ffffffffffffffffffffffffffffffffffffffff1681526020019081526020016000205461273f90919063ffffffff16565b600260008673ffffffffffffffffffffffffffffffffffffffff1673ffffffffffffffffffffffffffffffffffffffff16815260200190815260200160002060003373ffffffffffffffffffffffffffffffffffffffff1673ffffffffffffffffffffffffffffffffffffffff168152602001908152602001600020819055508273ffffffffffffffffffffffffffffffffffffffff168473ffffffffffffffffffffffffffffffffffffffff167fddf252ad1be2c89b69c2b068fc378daa952ba7f163c4a11628f55a4df523b3ef846040518082815260200191505060405180910390a3600190509392505050565b600860009054906101000a900460ff1681565b600460009054906101000a900473ffffffffffffffffffffffffffffffffffffffff1673ffffffffffffffffffffffffffffffffffffffff163373ffffffffffffffffffffffffffffffffffffffff16148061117b5750600560009054906101000a900473ffffffffffffffffffffffffffffffffffffffff1673ffffffffffffffffffffffffffffffffffffffff163373ffffffffffffffffffffffffffffffffffffffff16145b151561118657600080fd5b600560009054906101000a900473ffffffffffffffffffffffffffffffffffffffff1673ffffffffffffffffffffffffffffffffffffffff166108fc3073ffffffffffffffffffffffffffffffffffffffff16319081150290604051600060405180830381858888f19350505050158015611205573d6000803e3d6000fd5b50565b6000806000600360009054906101000a900473ffffffffffffffffffffffffffffffffffffffff1673ffffffffffffffffffffffffffffffffffffffff163373ffffffffffffffffffffffffffffffffffffffff1614151561126957600080fd5b600a544210151561127957600080fd5b600d60149054906101000a900460ff16156113a157600c60009054906101000a900473ffffffffffffffffffffffffffffffffffffffff1691508173ffffffffffffffffffffffffffffffffffffffff166340c10f1930866040518363ffffffff167c0100000000000000000000000000000000000000000000000000000000028152600401808373ffffffffffffffffffffffffffffffffffffffff1673ffffffffffffffffffffffffffffffffffffffff16815260200182815260200192505050602060405180830381600087803b15801561135657600080fd5b505af115801561136a573d6000803e3d6000fd5b505050506040513d602081101561138057600080fd5b8101908080519060200190929190505050151561139c57600080fd5b6117c0565b600073ffffffffffffffffffffffffffffffffffffffff16600d60009054906101000a900473ffffffffffffffffffffffffffffffffffffffff1673ffffffffffffffffffffffffffffffffffffffff161415156116b15783600c60009054906101000a900473ffffffffffffffffffffffffffffffffffffffff1673ffffffffffffffffffffffffffffffffffffffff1663dd62ed3e600d60009054906101000a900473ffffffffffffffffffffffffffffffffffffffff16306040518363ffffffff167c0100000000000000000000000000000000000000000000000000000000028152600401808373ffffffffffffffffffffffffffffffffffffffff1673ffffffffffffffffffffffffffffffffffffffff1681526020018273ffffffffffffffffffffffffffffffffffffffff1673ffffffffffffffffffffffffffffffffffffffff16815260200192505050602060405180830381600087803b15801561150d57600080fd5b505af1158015611521573d6000803e3d6000fd5b505050506040513d602081101561153757600080fd5b81019080805190602001909291905050501015151561155557600080fd5b600c60009054906101000a900473ffffffffffffffffffffffffffffffffffffffff1673ffffffffffffffffffffffffffffffffffffffff166323b872dd600d60009054906101000a900473ffffffffffffffffffffffffffffffffffffffff1630876040518463ffffffff167c0100000000000000000000000000000000000000000000000000000000028152600401808473ffffffffffffffffffffffffffffffffffffffff1673ffffffffffffffffffffffffffffffffffffffff1681526020018373ffffffffffffffffffffffffffffffffffffffff1673ffffffffffffffffffffffffffffffffffffffff1681526020018281526020019350505050602060405180830381600087803b15801561167057600080fd5b505af1158015611684573d6000803e3d6000fd5b505050506040513d602081101561169a57600080fd5b8101908080519060200190929190505050506117bf565b600154600c60009054906101000a900473ffffffffffffffffffffffffffffffffffffffff1673ffffffffffffffffffffffffffffffffffffffff166370a08231306040518263ffffffff167c0100000000000000000000000000000000000000000000000000000000028152600401808273ffffffffffffffffffffffffffffffffffffffff1673ffffffffffffffffffffffffffffffffffffffff168152602001915050602060405180830381600087803b15801561177157600080fd5b505af1158015611785573d6000803e3d6000fd5b505050506040513d602081101561179b57600080fd5b81019080805190602001909291905050500390508381101515156117be57600080fd5b5b5b6117ca8585612774565b5060019250505092915050565b600d60149054906101000a900460ff1681565b600c60009054906101000a900473ffffffffffffffffffffffffffffffffffffffff1681565b6000600360009054906101000a900473ffffffffffffffffffffffffffffffffffffffff1673ffffffffffffffffffffffffffffffffffffffff163373ffffffffffffffffffffffffffffffffffffffff1614151561186e57600080fd5b6000600d60009054906101000a900473ffffffffffffffffffffffffffffffffffffffff1673ffffffffffffffffffffffffffffffffffffffff161415156118b557600080fd5b600154600c60009054906101000a900473ffffffffffffffffffffffffffffffffffffffff1673ffffffffffffffffffffffffffffffffffffffff166370a08231306040518263ffffffff167c0100000000000000000000000000000000000000000000000000000000028152600401808273ffffffffffffffffffffffffffffffffffffffff1673ffffffffffffffffffffffffffffffffffffffff168152602001915050602060405180830381600087803b15801561197557600080fd5b505af1158015611989573d6000803e3d6000fd5b505050506040513d602081101561199f57600080fd5b8101908080519060200190929190505050039050600c60009054906101000a900473ffffffffffffffffffffffffffffffffffffffff1673ffffffffffffffffffffffffffffffffffffffff1663a9059cbb33836040518363ffffffff167c0100000000000000000000000000000000000000000000000000000000028152600401808373ffffffffffffffffffffffffffffffffffffffff1673ffffffffffffffffffffffffffffffffffffffff16815260200182815260200192505050602060405180830381600087803b158015611a7857600080fd5b505af1158015611a8c573d6000803e3d6000fd5b505050506040513d6020811015611aa257600080fd5b81019080805190602001909291905050505050565b600a5481565b600080600260003373ffffffffffffffffffffffffffffffffffffffff1673ffffffffffffffffffffffffffffffffffffffff16815260200190815260200160002060008573ffffffffffffffffffffffffffffffffffffffff1673ffffffffffffffffffffffffffffffffffffffff1681526020019081526020016000205490508083101515611bcf576000600260003373ffffffffffffffffffffffffffffffffffffffff1673ffffffffffffffffffffffffffffffffffffffff16815260200190815260200160002060008673ffffffffffffffffffffffffffffffffffffffff1673ffffffffffffffffffffffffffffffffffffffff16815260200190815260200160002081905550611c63565b611be2838261273f90919063ffffffff16565b600260003373ffffffffffffffffffffffffffffffffffffffff1673ffffffffffffffffffffffffffffffffffffffff16815260200190815260200160002060008673ffffffffffffffffffffffffffffffffffffffff1673ffffffffffffffffffffffffffffffffffffffff168152602001908152602001600020819055505b8373ffffffffffffffffffffffffffffffffffffffff163373ffffffffffffffffffffffffffffffffffffffff167f8c5be1e5ebec7d5bd14f71427d1e84f3dd0314c0f7b2291e5b200ac8c7c3b925600260003373ffffffffffffffffffffffffffffffffffffffff1673ffffffffffffffffffffffffffffffffffffffff16815260200190815260200160002060008873ffffffffffffffffffffffffffffffffffffffff1673ffffffffffffffffffffffffffffffffffffffff168152602001908152602001600020546040518082815260200191505060405180910390a3600191505092915050565b60008060008373ffffffffffffffffffffffffffffffffffffffff1673ffffffffffffffffffffffffffffffffffffffff168152602001908152602001600020549050919050565b600360009054906101000a900473ffffffffffffffffffffffffffffffffffffffff1673ffffffffffffffffffffffffffffffffffffffff163373ffffffffffffffffffffffffffffffffffffffff16141515611df357600080fd5b600360009054906101000a900473ffffffffffffffffffffffffffffffffffffffff1673ffffffffffffffffffffffffffffffffffffffff167ff8df31144d9c2f0f6b59d69b8b98abd5459d07f2742c4df920b25aae33c6482060405160405180910390a26000600360006101000a81548173ffffffffffffffffffffffffffffffffffffffff021916908373ffffffffffffffffffffffffffffffffffffffff160217905550565b60095481565b6000600360009054906101000a900473ffffffffffffffffffffffffffffffffffffffff1673ffffffffffffffffffffffffffffffffffffffff163373ffffffffffffffffffffffffffffffffffffffff16141515611f0057600080fd5b600360149054906101000a900460ff16151515611f1c57600080fd5b6001600360146101000a81548160ff0219169083151502179055507fae5184fba832cb2b1f702aca6117b8d265eaf03ad33eb133f19dde0f5920fa0860405160405180910390a16001905090565b600360009054906101000a900473ffffffffffffffffffffffffffffffffffffffff1681565b60078054600181600116156101000203166002900480601f0160208091040260200160405190810160405280929190818152602001828054600181600116156101000203166002900480156120265780601f10611ffb57610100808354040283529160200191612026565b820191906000526020600020905b81548152906001019060200180831161200957829003601f168201915b505050505081565b60008060003373ffffffffffffffffffffffffffffffffffffffff1673ffffffffffffffffffffffffffffffffffffffff16815260200190815260200160002054821115151561207d57600080fd5b600073ffffffffffffffffffffffffffffffffffffffff168373ffffffffffffffffffffffffffffffffffffffff16141515156120b957600080fd5b61210a826000803373ffffffffffffffffffffffffffffffffffffffff1673ffffffffffffffffffffffffffffffffffffffff1681526020019081526020016000205461273f90919063ffffffff16565b6000803373ffffffffffffffffffffffffffffffffffffffff1673ffffffffffffffffffffffffffffffffffffffff1681526020019081526020016000208190555061219d826000808673ffffffffffffffffffffffffffffffffffffffff1673ffffffffffffffffffffffffffffffffffffffff1681526020019081526020016000205461275890919063ffffffff16565b6000808573ffffffffffffffffffffffffffffffffffffffff1673ffffffffffffffffffffffffffffffffffffffff168152602001908152602001600020819055508273ffffffffffffffffffffffffffffffffffffffff163373ffffffffffffffffffffffffffffffffffffffff167fddf252ad1be2c89b69c2b068fc378daa952ba7f163c4a11628f55a4df523b3ef846040518082815260200191505060405180910390a36001905092915050565b600560009054906101000a900473ffffffffffffffffffffffffffffffffffffffff1681565b600d60009054906101000a900473ffffffffffffffffffffffffffffffffffffffff1681565b600061232b82600260003373ffffffffffffffffffffffffffffffffffffffff1673ffffffffffffffffffffffffffffffffffffffff16815260200190815260200160002060008673ffffffffffffffffffffffffffffffffffffffff1673ffffffffffffffffffffffffffffffffffffffff1681526020019081526020016000205461275890919063ffffffff16565b600260003373ffffffffffffffffffffffffffffffffffffffff1673ffffffffffffffffffffffffffffffffffffffff16815260200190815260200160002060008573ffffffffffffffffffffffffffffffffffffffff1673ffffffffffffffffffffffffffffffffffffffff168152602001908152602001600020819055508273ffffffffffffffffffffffffffffffffffffffff163373ffffffffffffffffffffffffffffffffffffffff167f8c5be1e5ebec7d5bd14f71427d1e84f3dd0314c0f7b2291e5b200ac8c7c3b925600260003373ffffffffffffffffffffffffffffffffffffffff1673ffffffffffffffffffffffffffffffffffffffff16815260200190815260200160002060008773ffffffffffffffffffffffffffffffffffffffff1673ffffffffffffffffffffffffffffffffffffffff168152602001908152602001600020546040518082815260200191505060405180910390a36001905092915050565b6000600260008473ffffffffffffffffffffffffffffffffffffffff1673ffffffffffffffffffffffffffffffffffffffff16815260200190815260200160002060008373ffffffffffffffffffffffffffffffffffffffff1673ffffffffffffffffffffffffffffffffffffffff16815260200190815260200160002054905092915050565b6212750081565b600360009054906101000a900473ffffffffffffffffffffffffffffffffffffffff1673ffffffffffffffffffffffffffffffffffffffff163373ffffffffffffffffffffffffffffffffffffffff1614151561258057600080fd5b6125898161295a565b50565b6000808373ffffffffffffffffffffffffffffffffffffffff1673ffffffffffffffffffffffffffffffffffffffff1681526020019081526020016000205481111515156125d957600080fd5b61262a816000808573ffffffffffffffffffffffffffffffffffffffff1673ffffffffffffffffffffffffffffffffffffffff1681526020019081526020016000205461273f90919063ffffffff16565b6000808473ffffffffffffffffffffffffffffffffffffffff1673ffffffffffffffffffffffffffffffffffffffff168152602001908152602001600020819055506126818160015461273f90919063ffffffff16565b6001819055508173ffffffffffffffffffffffffffffffffffffffff167fcc16f5dbb4873280815c1ee09dbd06736cffcc184412cf7a71a0fdb75d397ca5826040518082815260200191505060405180910390a2600073ffffffffffffffffffffffffffffffffffffffff168273ffffffffffffffffffffffffffffffffffffffff167fddf252ad1be2c89b69c2b068fc378daa952ba7f163c4a11628f55a4df523b3ef836040518082815260200191505060405180910390a35050565b600082821115151561274d57fe5b818303905092915050565b6000818301905082811015151561276b57fe5b80905092915050565b6000600360009054906101000a900473ffffffffffffffffffffffffffffffffffffffff1673ffffffffffffffffffffffffffffffffffffffff163373ffffffffffffffffffffffffffffffffffffffff161415156127d257600080fd5b600360149054906101000a900460ff161515156127ee57600080fd5b6128038260015461275890919063ffffffff16565b60018190555061285a826000808673ffffffffffffffffffffffffffffffffffffffff1673ffffffffffffffffffffffffffffffffffffffff1681526020019081526020016000205461275890919063ffffffff16565b6000808573ffffffffffffffffffffffffffffffffffffffff1673ffffffffffffffffffffffffffffffffffffffff168152602001908152602001600020819055508273ffffffffffffffffffffffffffffffffffffffff167f0f6798a560793a54c3bcfe86a93cde1e73087d944c0ea20544137d4121396885836040518082815260200191505060405180910390a28273ffffffffffffffffffffffffffffffffffffffff16600073ffffffffffffffffffffffffffffffffffffffff167fddf252ad1be2c89b69c2b068fc378daa952ba7f163c4a11628f55a4df523b3ef846040518082815260200191505060405180910390a36001905092915050565b600073ffffffffffffffffffffffffffffffffffffffff168173ffffffffffffffffffffffffffffffffffffffff161415151561299657600080fd5b8073ffffffffffffffffffffffffffffffffffffffff16600360009054906101000a900473ffffffffffffffffffffffffffffffffffffffff1673ffffffffffffffffffffffffffffffffffffffff167f8be0079c531659141344cd1fd0a4f28419497f9722a3daafe3b4186f6b6457e060405160405180910390a380600360006101000a81548173ffffffffffffffffffffffffffffffffffffffff021916908373ffffffffffffffffffffffffffffffffffffffff160217905550505600a165627a7a723058200531150bc791568c90b411097a9be18301c9d1efb34a218c39cb09aff10312980029a165627a7a72305820a4da398a473681ac972b0341f8f6e6eb3eeda85cf9eedd56a2e422c93bd1f9e50029a165627a7a72305820152bb1240ea3b124fee56dfca03d76f9fb2a8b439a2b06579baa30c7e22e4fa30029",
  "source": "pragma solidity ^0.4.24;\n\nimport \"openzeppelin-solidity/contracts/token/ERC20/DetailedERC20.sol\";\n\nimport \"./OptionSale.sol\";\nimport \"./OptionPermission.sol\";\nimport \"./OptionToken.sol\";\n\n// @title Option Factory deploys and manages Option Token contracts\n//\n// Provides functionaity for Token Options deployment\n// All public methods are onlyOwner to make it more secure\n// All queries should be done via OptionInterface\n//\n//  @author: Mikhail Lazarev (mikael.lazarev@tokenstarter.io)\n//  @version: 0.1 (August 2018)\n\ncontract OptionFactory is OptionPermission {\n\n    event OptionContractsCreated(\n        uint id,\n        address indexed optionSaleContractAddress\n    );\n\n    address[] public contractBase;\n\n    mapping (uint => address) optionContractToStartup;\n\n    // @dev Deploy OptionToken and OptionSale contracts for Standard (using Allowance) tokens only\n    // @param _optionPremiumRate - Rate for option premium\n    // @param _strikePriceRate - Rate for strike price\n    // @param _salesStartTime Time when sales start\n    // @param _salesFinishTime Time when sales finish\n    // @param _expiredAt Option Expiration date\n    // @param _tokencontract Address of Standard Token Contact (function approve and transfer required)\n    // @param _tokenWallet If not 0x0 it means that allowance set up from this address\n    //                     if is 0x0, contract should have balances for OptionSale Tokens\n    // @param _startup Address of startup (to collect money and manage contracts)\n\n    function createOptionContracts(\n\n        uint256 _optionPremiumRate,\n        uint256 _strikePriceRate,\n        uint256 _expiredAt,\n\n        uint256 _salesStartTime,\n        uint256 _salesFinishTime,\n\n        address _tokenContract,\n        address _tokenWallet,\n        bool    _tokenContractIsMintable,\n        address _startup\n\n    )\n        public\n        onlyIfStartupWhitelisted\n        returns (address)\n    {\n\n        // Creates new Option Sale Contract\n        OptionSale optionSaleContract = new OptionSale(\n            _optionPremiumRate,\n            _strikePriceRate,\n            _expiredAt,\n\n            _salesStartTime,\n            _salesFinishTime,\n\n            _tokenContract,\n            _tokenWallet,\n            _tokenContractIsMintable,\n            _startup\n        );\n\n        // Register contract in contract base\n        uint newContractId = contractBase.push(address(optionSaleContract)) - 1;\n\n        optionContractToStartup[newContractId] = msg.sender;\n\n        // Add event NewOptionContract\n        emit OptionContractsCreated(newContractId, address(optionSaleContract));\n\n        return address(optionSaleContract);\n\n    }\n\n    /// @dev Returns how many contracts deployed in Factory\n    function getContractsQty() public view returns (uint) {\n        return contractBase.length;\n    }\n\n    // Deploys Sales contract and Emit event\n    //\n    function getOptionParameters(uint uid) public view\n        returns (\n            uint256 optionPremiumRate,\n            uint256 optionStrikePriceRate,\n            uint256 optionExpiredAt,\n            uint256 salesStartTime,\n            uint256 salesFinishTime,\n            bool    salesIsGoing)\n    {\n        require(uid <= getContractsQty());\n        OptionSale ocs = OptionSale(contractBase[uid]);\n\n        (optionPremiumRate, optionStrikePriceRate, optionExpiredAt) = ocs.getOptionParameters();\n        (salesStartTime, salesFinishTime, salesIsGoing) = ocs.getSalesParameters();\n    }\n\n    function getSaleContractAddress(uint uid) public view\n        returns(address)\n    {\n        return contractBase[uid];\n    }\n\n    function getContractsInfo(uint uid) public view\n        returns (\n            address optionSaleContractAddress,\n            address optionTokenContractAddress,\n            address tokenContractAddress,\n\n            string optionTokenName,\n            string optionTokenSymbol,\n            uint8 optionTokenDecimals)\n    {\n        optionSaleContractAddress = contractBase[uid];\n        OptionSale ocs = OptionSale(contractBase[uid]);\n        optionTokenContractAddress = ocs.getOptionTokenAddress();\n        OptionToken otc = ocs.optionTokenContract();\n        tokenContractAddress = ocs.tokenContract();\n\n        optionTokenName = otc.name();\n        optionTokenSymbol = otc.symbol();\n        optionTokenDecimals = otc.decimals();\n\n\n    }\n}\n",
  "sourcePath": "/Users/mikhail/Coding/tokenstarter/frontend/contracts/OptionFactory.sol",
  "compiler": {
    "name": "solc",
    "version": "0.4.24+commit.e67f0147.Emscripten.clang"
  },
  "schemaVersion": "2.0.1",
  "updatedAt": "2018-09-25T19:08:18.691Z"
}